:020000000000fe
:020001000000fd
:020002000000fc
:020003000000fb
:020004000000fa
:020005000000f9
:020006000001f7
:020007000001f6
:020008000001f5
:020009000001f4
:02000a000001f3
:02000b000001f2
:02000c000001f1
:02000d000001f0
:02000e000001ef
:02000f000001ee
:020010000002ec
:020011000002eb
:020012000002ea
:020013000002e9
:020014000002e8
:020015000002e7
:020016000002e6
:020017000002e5
:020018000002e4
:020019000002e3
:02001a000003e1
:02001b000003e0
:02001c000003df
:02001d000003de
:02001e000003dd
:02001f000003dc
:020020000003db
:020021000003da
:020022000003d9
:020023000003d8
:020024000004d6
:020025000004d5
:020026000004d4
:020027000004d3
:020028000004d2
:020029000004d1
:02002a000004d0
:02002b000004cf
:02002c000004ce
:02002d000004cd
:02002e000005cb
:02002f000005ca
:020030000005c9
:020031000005c8
:020032000005c7
:020033000005c6
:020034000005c5
:020035000005c4
:020036000005c3
:020037000005c2
:020038000005c1
:020039000006bf
:02003a000006be
:02003b000006bd
:02003c000006bc
:02003d000006bb
:02003e000006ba
:02003f000006b9
:020040000006b8
:020041000006b7
:020042000006b6
:020043000007b4
:020044000007b3
:020045000007b2
:020046000007b1
:020047000007b0
:020048000007af
:020049000007ae
:02004a000007ad
:02004b000007ac
:02004c000007ab
:02004d000008a9
:02004e000008a8
:02004f000008a7
:020050000008a6
:020051000008a5
:020052000008a4
:020053000008a3
:020054000008a2
:020055000008a1
:020056000008a0
:0200570000099e
:0200580000099d
:0200590000099c
:02005a0000099b
:02005b0000099a
:02005c00000999
:02005d00000998
:02005e00000997
:02005f00000996
:02006000000995
:02006100000a93
:02006200000a92
:02006300000a91
:02006400000a90
:02006500000a8f
:02006600000a8e
:02006700000a8d
:02006800000a8c
:02006900000a8b
:02006a00000a8a
:02006b00000b88
:02006c00000b87
:02006d00000b86
:02006e00000b85
:02006f00000b84
:02007000000b83
:02007100000b82
:02007200000b81
:02007300000b80
:02007400000b7f
:02007500000b7e
:02007600000c7c
:02007700000c7b
:02007800000c7a
:02007900000c79
:02007a00000c78
:02007b00000c77
:02007c00000c76
:02007d00000c75
:02007e00000c74
:02007f00000c73
:02008000000d71
:02008100000d70
:02008200000d6f
:02008300000d6e
:02008400000d6d
:02008500000d6c
:02008600000d6b
:02008700000d6a
:02008800000d69
:02008900000d68
:02008a00000e66
:02008b00000e65
:02008c00000e64
:02008d00000e63
:02008e00000e62
:02008f00000e61
:02009000000e60
:02009100000e5f
:02009200000e5e
:02009300000e5d
:02009400000f5b
:02009500000f5a
:02009600000f59
:02009700000f58
:02009800000f57
:02009900000f56
:02009a00000f55
:02009b00000f54
:02009c00000f53
:02009d00000f52
:02009e00001050
:02009f0000104f
:0200a00000104e
:0200a10000104d
:0200a20000104c
:0200a30000104b
:0200a40000104a
:0200a500001049
:0200a600001048
:0200a700001047
:0200a800001046
:0200a900001144
:0200aa00001143
:0200ab00001142
:0200ac00001141
:0200ad00001140
:0200ae0000113f
:0200af0000113e
:0200b00000113d
:0200b10000113c
:0200b20000113b
:0200b300001239
:0200b400001238
:0200b500001237
:0200b600001236
:0200b700001235
:0200b800001234
:0200b900001233
:0200ba00001232
:0200bb00001231
:0200bc00001230
:0200bd0000132e
:0200be0000132d
:0200bf0000132c
:0200c00000132b
:0200c10000132a
:0200c200001329
:0200c300001328
:0200c400001327
:0200c500001326
:0200c600001325
:0200c700001423
:0200c800001422
:0200c900001421
:0200ca00001420
:0200cb0000141f
:0200cc0000141e
:0200cd0000141d
:0200ce0000141c
:0200cf0000141b
:0200d00000141a
:0200d100001518
:0200d200001517
:0200d300001516
:0200d400001515
:0200d500001514
:0200d600001513
:0200d700001512
:0200d800001511
:0200d900001510
:0200da0000150f
:0200db0000150e
:0200dc0000160c
:0200dd0000160b
:0200de0000160a
:0200df00001609
:0200e000001608
:0200e100001607
:0200e200001606
:0200e300001605
:0200e400001604
:0200e500001603
:0200e600001701
:0200e700001700
:0200e8000017ff
:0200e9000017fe
:0200ea000017fd
:0200eb000017fc
:0200ec000017fb
:0200ed000017fa
:0200ee000017f9
:0200ef000017f8
:0200f0000018f6
:0200f1000018f5
:0200f2000018f4
:0200f3000018f3
:0200f4000018f2
:0200f5000018f1
:0200f6000018f0
:0200f7000018ef
:0200f8000018ee
:0200f9000018ed
:0200fa000019eb
:0200fb000019ea
:0200fc000019e9
:0200fd000019e8
:0200fe000019e7
:0200ff000019e6
:020100000019e4
:020101000019e3
:020102000019e2
:020103000019e1
:02010400001adf
:02010500001ade
:02010600001add
:02010700001adc
:02010800001adb
:02010900001ada
:02010a00001ad9
:02010b00001ad8
:02010c00001ad7
:02010d00001ad6
:02010e00001bd4
:02010f00001bd3
:02011000001bd2
:02011100001bd1
:02011200001bd0
:02011300001bcf
:02011400001bce
:02011500001bcd
:02011600001bcc
:02011700001bcb
:02011800001bca
:02011900001cc8
:02011a00001cc7
:02011b00001cc6
:02011c00001cc5
:02011d00001cc4
:02011e00001cc3
:02011f00001cc2
:02012000001cc1
:02012100001cc0
:02012200001cbf
:02012300001dbd
:02012400001dbc
:02012500001dbb
:02012600001dba
:02012700001db9
:02012800001db8
:02012900001db7
:02012a00001db6
:02012b00001db5
:02012c00001db4
:02012d00001eb2
:02012e00001eb1
:02012f00001eb0
:02013000001eaf
:02013100001eae
:02013200001ead
:02013300001eac
:02013400001eab
:02013500001eaa
:02013600001ea9
:02013700001fa7
:02013800001fa6
:02013900001fa5
:02013a00001fa4
:02013b00001fa3
:02013c00001fa2
:02013d00001fa1
:02013e00001fa0
:02013f00001f9f
:02014000001f9e
:0201410000209c
:0201420000209b
:0201430000209a
:02014400002099
:02014500002098
:02014600002097
:02014700002096
:02014800002095
:02014900002094
:02014a00002093
:02014b00002092
:02014c00002190
:02014d0000218f
:02014e0000218e
:02014f0000218d
:0201500000218c
:0201510000218b
:0201520000218a
:02015300002189
:02015400002188
:02015500002187
:02015600002285
:02015700002284
:02015800002283
:02015900002282
:02015a00002281
:02015b00002280
:02015c0000227f
:02015d0000227e
:02015e0000227d
:02015f0000227c
:0201600000237a
:02016100002379
:02016200002378
:02016300002377
:02016400002376
:02016500002375
:02016600002374
:02016700002373
:02016800002372
:02016900002371
:02016a0000246f
:02016b0000246e
:02016c0000246d
:02016d0000246c
:02016e0000246b
:02016f0000246a
:02017000002469
:02017100002468
:02017200002467
:02017300002466
:02017400002564
:02017500002563
:02017600002562
:02017700002561
:02017800002560
:0201790000255f
:02017a0000255e
:02017b0000255d
:02017c0000255c
:02017d0000255b
:02017e0000255a
:02017f00002658
:02018000002657
:02018100002656
:02018200002655
:02018300002654
:02018400002653
:02018500002652
:02018600002651
:02018700002650
:0201880000264f
:0201890000274d
:02018a0000274c
:02018b0000274b
:02018c0000274a
:02018d00002749
:02018e00002748
:02018f00002747
:02019000002746
:02019100002745
:02019200002744
:02019300002842
:02019400002841
:02019500002840
:0201960000283f
:0201970000283e
:0201980000283d
:0201990000283c
:02019a0000283b
:02019b0000283a
:02019c00002839
:02019d00002937
:02019e00002936
:02019f00002935
:0201a000002934
:0201a100002933
:0201a200002932
:0201a300002931
:0201a400002930
:0201a50000292f
:0201a60000292e
:0201a700002a2c
:0201a800002a2b
:0201a900002a2a
:0201aa00002a29
:0201ab00002a28
:0201ac00002a27
:0201ad00002a26
:0201ae00002a25
:0201af00002a24
:0201b000002a23
:0201b100002a22
:0201b200002b20
:0201b300002b1f
:0201b400002b1e
:0201b500002b1d
:0201b600002b1c
:0201b700002b1b
:0201b800002b1a
:0201b900002b19
:0201ba00002b18
:0201bb00002b17
:0201bc00002c15
:0201bd00002c14
:0201be00002c13
:0201bf00002c12
:0201c000002c11
:0201c100002c10
:0201c200002c0f
:0201c300002c0e
:0201c400002c0d
:0201c500002c0c
:0201c600002d0a
:0201c700002d09
:0201c800002d08
:0201c900002d07
:0201ca00002d06
:0201cb00002d05
:0201cc00002d04
:0201cd00002d03
:0201ce00002d02
:0201cf00002d01
:0201d000002eff
:0201d100002efe
:0201d200002efd
:0201d300002efc
:0201d400002efb
:0201d500002efa
:0201d600002ef9
:0201d700002ef8
:0201d800002ef7
:0201d900002ef6
:0201da00002ff4
:0201db00002ff3
:0201dc00002ff2
:0201dd00002ff1
:0201de00002ff0
:0201df00002fef
:0201e000002fee
:0201e100002fed
:0201e200002fec
:0201e300002feb
:0201e4000030e9
:0201e5000030e8
:0201e6000030e7
:0201e7000030e6
:0201e8000030e5
:0201e9000030e4
:0201ea000030e3
:0201eb000030e2
:0201ec000030e1
:0201ed000030e0
:0201ee000030df
:0201ef000031dd
:0201f0000031dc
:0201f1000031db
:0201f2000031da
:0201f3000031d9
:0201f4000031d8
:0201f5000031d7
:0201f6000031d6
:0201f7000031d5
:0201f8000031d4
:0201f9000032d2
:0201fa000032d1
:0201fb000032d0
:0201fc000032cf
:0201fd000032ce
:0201fe000032cd
:0201ff000032cc
:020200000032ca
:020201000032c9
:020202000032c8
:020203000033c6
:020204000033c5
:020205000033c4
:020206000033c3
:020207000033c2
:020208000033c1
:020209000033c0
:02020a000033bf
:02020b000033be
:02020c000033bd
:02020d000034bb
:02020e000034ba
:02020f000034b9
:020210000034b8
:020211000034b7
:020212000034b6
:020213000034b5
:020214000034b4
:020215000034b3
:020216000034b2
:020217000035b0
:020218000035af
:020219000035ae
:02021a000035ad
:02021b000035ac
:02021c000035ab
:02021d000035aa
:02021e000035a9
:02021f000035a8
:020220000035a7
:020221000035a6
:020222000036a4
:020223000036a3
:020224000036a2
:020225000036a1
:020226000036a0
:0202270000369f
:0202280000369e
:0202290000369d
:02022a0000369c
:02022b0000369b
:02022c00003799
:02022d00003798
:02022e00003797
:02022f00003796
:02023000003795
:02023100003794
:02023200003793
:02023300003792
:02023400003791
:02023500003790
:0202360000388e
:0202370000388d
:0202380000388c
:0202390000388b
:02023a0000388a
:02023b00003889
:02023c00003888
:02023d00003887
:02023e00003886
:02023f00003885
:02024000003983
:02024100003982
:02024200003981
:02024300003980
:0202440000397f
:0202450000397e
:0202460000397d
:0202470000397c
:0202480000397b
:0202490000397a
:02024a00003a78
:02024b00003a77
:02024c00003a76
:02024d00003a75
:02024e00003a74
:02024f00003a73
:02025000003a72
:02025100003a71
:02025200003a70
:02025300003a6f
:02025400003a6e
:02025500003b6c
:02025600003b6b
:02025700003b6a
:02025800003b69
:02025900003b68
:02025a00003b67
:02025b00003b66
:02025c00003b65
:02025d00003b64
:02025e00003b63
:02025f00003c61
:02026000003c60
:02026100003c5f
:02026200003c5e
:02026300003c5d
:02026400003c5c
:02026500003c5b
:02026600003c5a
:02026700003c59
:02026800003c58
:02026900003d56
:02026a00003d55
:02026b00003d54
:02026c00003d53
:02026d00003d52
:02026e00003d51
:02026f00003d50
:02027000003d4f
:02027100003d4e
:02027200003d4d
:02027300003e4b
:02027400003e4a
:02027500003e49
:02027600003e48
:02027700003e47
:02027800003e46
:02027900003e45
:02027a00003e44
:02027b00003e43
:02027c00003e42
:02027d00003f40
:02027e00003f3f
:02027f00003f3e
:02028000003f3d
:02028100003f3c
:02028200003f3b
:02028300003f3a
:02028400003f39
:02028500003f38
:02028600003f37
:02028700004035
:02028800004034
:02028900004033
:02028a00004032
:02028b00004031
:02028c00004030
:02028d0000402f
:02028e0000402e
:02028f0000402d
:0202900000402c
:0202910000402b
:02029200004129
:02029300004128
:02029400004127
:02029500004126
:02029600004125
:02029700004124
:02029800004123
:02029900004122
:02029a00004121
:02029b00004120
:02029c0000421e
:02029d0000421d
:02029e0000421c
:02029f0000421b
:0202a00000421a
:0202a100004219
:0202a200004218
:0202a300004217
:0202a400004216
:0202a500004215
:0202a600004313
:0202a700004312
:0202a800004311
:0202a900004310
:0202aa0000430f
:0202ab0000430e
:0202ac0000430d
:0202ad0000430c
:0202ae0000430b
:0202af0000430a
:0202b000004408
:0202b100004407
:0202b200004406
:0202b300004405
:0202b400004404
:0202b500004403
:0202b600004402
:0202b700004401
:0202b800004400
:0202b9000044ff
:0202ba000045fd
:0202bb000045fc
:0202bc000045fb
:0202bd000045fa
:0202be000045f9
:0202bf000045f8
:0202c0000045f7
:0202c1000045f6
:0202c2000045f5
:0202c3000045f4
:0202c4000045f3
:0202c5000046f1
:0202c6000046f0
:0202c7000046ef
:0202c8000046ee
:0202c9000046ed
:0202ca000046ec
:0202cb000046eb
:0202cc000046ea
:0202cd000046e9
:0202ce000046e8
:0202cf000047e6
:0202d0000047e5
:0202d1000047e4
:0202d2000047e3
:0202d3000047e2
:0202d4000047e1
:0202d5000047e0
:0202d6000047df
:0202d7000047de
:0202d8000047dd
:0202d9000048db
:0202da000048da
:0202db000048d9
:0202dc000048d8
:0202dd000048d7
:0202de000048d6
:0202df000048d5
:0202e0000048d4
:0202e1000048d3
:0202e2000048d2
:0202e3000049d0
:0202e4000049cf
:0202e5000049ce
:0202e6000049cd
:0202e7000049cc
:0202e8000049cb
:0202e9000049ca
:0202ea000049c9
:0202eb000049c8
:0202ec000049c7
:0202ed00004ac5
:0202ee00004ac4
:0202ef00004ac3
:0202f000004ac2
:0202f100004ac1
:0202f200004ac0
:0202f300004abf
:0202f400004abe
:0202f500004abd
:0202f600004abc
:0202f700004abb
:0202f800004bb9
:0202f900004bb8
:0202fa00004bb7
:0202fb00004bb6
:0202fc00004bb5
:0202fd00004bb4
:0202fe00004bb3
:0202ff00004bb2
:02030000004bb0
:02030100004baf
:02030200004cad
:02030300004cac
:02030400004cab
:02030500004caa
:02030600004ca9
:02030700004ca8
:02030800004ca7
:02030900004ca6
:02030a00004ca5
:02030b00004ca4
:02030c00004da2
:02030d00004da1
:02030e00004da0
:02030f00004d9f
:02031000004d9e
:02031100004d9d
:02031200004d9c
:02031300004d9b
:02031400004d9a
:02031500004d99
:02031600004e97
:02031700004e96
:02031800004e95
:02031900004e94
:02031a00004e93
:02031b00004e92
:02031c00004e91
:02031d00004e90
:02031e00004e8f
:02031f00004e8e
:02032000004f8c
:02032100004f8b
:02032200004f8a
:02032300004f89
:02032400004f88
:02032500004f87
:02032600004f86
:02032700004f85
:02032800004f84
:02032900004f83
:02032a00004f82
:02032b00005080
:02032c0000507f
:02032d0000507e
:02032e0000507d
:02032f0000507c
:0203300000507b
:0203310000507a
:02033200005079
:02033300005078
:02033400005077
:02033500005175
:02033600005174
:02033700005173
:02033800005172
:02033900005171
:02033a00005170
:02033b0000516f
:02033c0000516e
:02033d0000516d
:02033e0000516c
:02033f0000526a
:02034000005269
:02034100005268
:02034200005267
:02034300005266
:02034400005265
:02034500005264
:02034600005263
:02034700005262
:02034800005261
:0203490000535f
:02034a0000535e
:02034b0000535d
:02034c0000535c
:02034d0000535b
:02034e0000535a
:02034f00005359
:02035000005358
:02035100005357
:02035200005356
:02035300005454
:02035400005453
:02035500005452
:02035600005451
:02035700005450
:0203580000544f
:0203590000544e
:02035a0000544d
:02035b0000544c
:02035c0000544b
:02035d00005549
:02035e00005548
:02035f00005547
:02036000005546
:02036100005545
:02036200005544
:02036300005543
:02036400005542
:02036500005541
:02036600005540
:0203670000553f
:0203680000563d
:0203690000563c
:02036a0000563b
:02036b0000563a
:02036c00005639
:02036d00005638
:02036e00005637
:02036f00005636
:02037000005635
:02037100005634
:02037200005732
:02037300005731
:02037400005730
:0203750000572f
:0203760000572e
:0203770000572d
:0203780000572c
:0203790000572b
:02037a0000572a
:02037b00005729
:02037c00005827
:02037d00005826
:02037e00005825
:02037f00005824
:02038000005823
:02038100005822
:02038200005821
:02038300005820
:0203840000581f
:0203850000581e
:0203860000591c
:0203870000591b
:0203880000591a
:02038900005919
:02038a00005918
:02038b00005917
:02038c00005916
:02038d00005915
:02038e00005914
:02038f00005913
:02039000005a11
:02039100005a10
:02039200005a0f
:02039300005a0e
:02039400005a0d
:02039500005a0c
:02039600005a0b
:02039700005a0a
:02039800005a09
:02039900005a08
:02039a00005a07
:02039b00005b05
:02039c00005b04
:02039d00005b03
:02039e00005b02
:02039f00005b01
:0203a000005b00
:0203a100005bff
:0203a200005bfe
:0203a300005bfd
:0203a400005bfc
:0203a500005cfa
:0203a600005cf9
:0203a700005cf8
:0203a800005cf7
:0203a900005cf6
:0203aa00005cf5
:0203ab00005cf4
:0203ac00005cf3
:0203ad00005cf2
:0203ae00005cf1
:0203af00005def
:0203b000005dee
:0203b100005ded
:0203b200005dec
:0203b300005deb
:0203b400005dea
:0203b500005de9
:0203b600005de8
:0203b700005de7
:0203b800005de6
:0203b900005ee4
:0203ba00005ee3
:0203bb00005ee2
:0203bc00005ee1
:0203bd00005ee0
:0203be00005edf
:0203bf00005ede
:0203c000005edd
:0203c100005edc
:0203c200005edb
:0203c300005fd9
:0203c400005fd8
:0203c500005fd7
:0203c600005fd6
:0203c700005fd5
:0203c800005fd4
:0203c900005fd3
:0203ca00005fd2
:0203cb00005fd1
:0203cc00005fd0
:0203cd00005fcf
:0203ce000060cd
:0203cf000060cc
:0203d0000060cb
:0203d1000060ca
:0203d2000060c9
:0203d3000060c8
:0203d4000060c7
:0203d5000060c6
:0203d6000060c5
:0203d7000060c4
:0203d8000061c2
:0203d9000061c1
:0203da000061c0
:0203db000061bf
:0203dc000061be
:0203dd000061bd
:0203de000061bc
:0203df000061bb
:0203e0000061ba
:0203e1000061b9
:0203e2000062b7
:0203e3000062b6
:0203e4000062b5
:0203e5000062b4
:0203e6000062b3
:0203e7000062b2
:0203e8000062b1
:0203e9000062b0
:0203ea000062af
:0203eb000062ae
:0203ec000063ac
:0203ed000063ab
:0203ee000063aa
:0203ef000063a9
:0203f0000063a8
:0203f1000063a7
:0203f2000063a6
:0203f3000063a5
:0203f4000063a4
:0203f5000063a3
:0203f6000064a1
:0203f7000064a0
:0203f80000649f
:0203f90000649e
:0203fa0000649d
:0203fb0000649c
:0203fc0000649b
:0203fd0000649a
:0203fe00006499
:0203ff00006498
:02040000006496
:02040100006594
:02040200006593
:02040300006592
:02040400006591
:02040500006590
:0204060000658f
:0204070000658e
:0204080000658d
:0204090000658c
:02040a0000658b
:02040b00006689
:02040c00006688
:02040d00006687
:02040e00006686
:02040f00006685
:02041000006684
:02041100006683
:02041200006682
:02041300006681
:02041400006680
:0204150000677e
:0204160000677d
:0204170000677c
:0204180000677b
:0204190000677a
:02041a00006779
:02041b00006778
:02041c00006777
:02041d00006776
:02041e00006775
:02041f00006873
:02042000006872
:02042100006871
:02042200006870
:0204230000686f
:0204240000686e
:0204250000686d
:0204260000686c
:0204270000686b
:0204280000686a
:02042900006968
:02042a00006967
:02042b00006966
:02042c00006965
:02042d00006964
:02042e00006963
:02042f00006962
:02043000006961
:02043100006960
:0204320000695f
:02043300006a5d
:02043400006a5c
:02043500006a5b
:02043600006a5a
:02043700006a59
:02043800006a58
:02043900006a57
:02043a00006a56
:02043b00006a55
:02043c00006a54
:02043d00006a53
:02043e00006b51
:02043f00006b50
:02044000006b4f
:02044100006b4e
:02044200006b4d
:02044300006b4c
:02044400006b4b
:02044500006b4a
:02044600006b49
:02044700006b48
:02044800006c46
:02044900006c45
:02044a00006c44
:02044b00006c43
:02044c00006c42
:02044d00006c41
:02044e00006c40
:02044f00006c3f
:02045000006c3e
:02045100006c3d
:02045200006d3b
:02045300006d3a
:02045400006d39
:02045500006d38
:02045600006d37
:02045700006d36
:02045800006d35
:02045900006d34
:02045a00006d33
:02045b00006d32
:02045c00006e30
:02045d00006e2f
:02045e00006e2e
:02045f00006e2d
:02046000006e2c
:02046100006e2b
:02046200006e2a
:02046300006e29
:02046400006e28
:02046500006e27
:02046600006f25
:02046700006f24
:02046800006f23
:02046900006f22
:02046a00006f21
:02046b00006f20
:02046c00006f1f
:02046d00006f1e
:02046e00006f1d
:02046f00006f1c
:02047000006f1b
:02047100007019
:02047200007018
:02047300007017
:02047400007016
:02047500007015
:02047600007014
:02047700007013
:02047800007012
:02047900007011
:02047a00007010
:02047b0000710e
:02047c0000710d
:02047d0000710c
:02047e0000710b
:02047f0000710a
:02048000007109
:02048100007108
:02048200007107
:02048300007106
:02048400007105
:02048500007203
:02048600007202
:02048700007201
:02048800007200
:020489000072ff
:02048a000072fe
:02048b000072fd
:02048c000072fc
:02048d000072fb
:02048e000072fa
:02048f000073f8
:020490000073f7
:020491000073f6
:020492000073f5
:020493000073f4
:020494000073f3
:020495000073f2
:020496000073f1
:020497000073f0
:020498000073ef
:020499000074ed
:02049a000074ec
:02049b000074eb
:02049c000074ea
:02049d000074e9
:02049e000074e8
:02049f000074e7
:0204a0000074e6
:0204a1000074e5
:0204a2000074e4
:0204a3000074e3
:0204a4000075e1
:0204a5000075e0
:0204a6000075df
:0204a7000075de
:0204a8000075dd
:0204a9000075dc
:0204aa000075db
:0204ab000075da
:0204ac000075d9
:0204ad000075d8
:0204ae000076d6
:0204af000076d5
:0204b0000076d4
:0204b1000076d3
:0204b2000076d2
:0204b3000076d1
:0204b4000076d0
:0204b5000076cf
:0204b6000076ce
:0204b7000076cd
:0204b8000077cb
:0204b9000077ca
:0204ba000077c9
:0204bb000077c8
:0204bc000077c7
:0204bd000077c6
:0204be000077c5
:0204bf000077c4
:0204c0000077c3
:0204c1000077c2
:0204c2000078c0
:0204c3000078bf
:0204c4000078be
:0204c5000078bd
:0204c6000078bc
:0204c7000078bb
:0204c8000078ba
:0204c9000078b9
:0204ca000078b8
:0204cb000078b7
:0204cc000079b5
:0204cd000079b4
:0204ce000079b3
:0204cf000079b2
:0204d0000079b1
:0204d1000079b0
:0204d2000079af
:0204d3000079ae
:0204d4000079ad
:0204d5000079ac
:0204d6000079ab
:0204d700007aa9
:0204d800007aa8
:0204d900007aa7
:0204da00007aa6
:0204db00007aa5
:0204dc00007aa4
:0204dd00007aa3
:0204de00007aa2
:0204df00007aa1
:0204e000007aa0
:0204e100007b9e
:0204e200007b9d
:0204e300007b9c
:0204e400007b9b
:0204e500007b9a
:0204e600007b99
:0204e700007b98
:0204e800007b97
:0204e900007b96
:0204ea00007b95
:0204eb00007c93
:0204ec00007c92
:0204ed00007c91
:0204ee00007c90
:0204ef00007c8f
:0204f000007c8e
:0204f100007c8d
:0204f200007c8c
:0204f300007c8b
:0204f400007c8a
:0204f500007d88
:0204f600007d87
:0204f700007d86
:0204f800007d85
:0204f900007d84
:0204fa00007d83
:0204fb00007d82
:0204fc00007d81
:0204fd00007d80
:0204fe00007d7f
:0204ff00007e7d
:02050000007e7b
:02050100007e7a
:02050200007e79
:02050300007e78
:02050400007e77
:02050500007e76
:02050600007e75
:02050700007e74
:02050800007e73
:02050900007e72
:02050a00007f70
:02050b00007f6f
:02050c00007f6e
:02050d00007f6d
:02050e00007f6c
:02050f00007f6b
:02051000007f6a
:02051100007f69
:02051200007f68
:02051300007f67
:02051400008065
:02051500008064
:02051600008063
:02051700008062
:02051800008061
:02051900008060
:02051a0000805f
:02051b0000805e
:02051c0000805d
:02051d0000805c
:02051e0000815a
:02051f00008159
:02052000008158
:02052100008157
:02052200008156
:02052300008155
:02052400008154
:02052500008153
:02052600008152
:02052700008151
:0205280000824f
:0205290000824e
:02052a0000824d
:02052b0000824c
:02052c0000824b
:02052d0000824a
:02052e00008249
:02052f00008248
:02053000008247
:02053100008246
:02053200008344
:02053300008343
:02053400008342
:02053500008341
:02053600008340
:0205370000833f
:0205380000833e
:0205390000833d
:02053a0000833c
:02053b0000833b
:02053c0000833a
:02053d00008438
:02053e00008437
:02053f00008436
:02054000008435
:02054100008434
:02054200008433
:02054300008432
:02054400008431
:02054500008430
:0205460000842f
:0205470000852d
:0205480000852c
:0205490000852b
:02054a0000852a
:02054b00008529
:02054c00008528
:02054d00008527
:02054e00008526
:02054f00008525
:02055000008524
:02055100008622
:02055200008621
:02055300008620
:0205540000861f
:0205550000861e
:0205560000861d
:0205570000861c
:0205580000861b
:0205590000861a
:02055a00008619
:02055b00008717
:02055c00008716
:02055d00008715
:02055e00008714
:02055f00008713
:02056000008712
:02056100008711
:02056200008710
:0205630000870f
:0205640000870e
:0205650000880c
:0205660000880b
:0205670000880a
:02056800008809
:02056900008808
:02056a00008807
:02056b00008806
:02056c00008805
:02056d00008804
:02056e00008803
:02056f00008901
:02057000008900
:020571000089ff
:020572000089fe
:020573000089fd
:020574000089fc
:020575000089fb
:020576000089fa
:020577000089f9
:020578000089f8
:020579000089f7
:02057a00008af5
:02057b00008af4
:02057c00008af3
:02057d00008af2
:02057e00008af1
:02057f00008af0
:02058000008aef
:02058100008aee
:02058200008aed
:02058300008aec
:02058400008bea
:02058500008be9
:02058600008be8
:02058700008be7
:02058800008be6
:02058900008be5
:02058a00008be4
:02058b00008be3
:02058c00008be2
:02058d00008be1
:02058e00008cdf
:02058f00008cde
:02059000008cdd
:02059100008cdc
:02059200008cdb
:02059300008cda
:02059400008cd9
:02059500008cd8
:02059600008cd7
:02059700008cd6
:02059800008dd4
:02059900008dd3
:02059a00008dd2
:02059b00008dd1
:02059c00008dd0
:02059d00008dcf
:02059e00008dce
:02059f00008dcd
:0205a000008dcc
:0205a100008dcb
:0205a200008ec9
:0205a300008ec8
:0205a400008ec7
:0205a500008ec6
:0205a600008ec5
:0205a700008ec4
:0205a800008ec3
:0205a900008ec2
:0205aa00008ec1
:0205ab00008ec0
:0205ac00008ebf
:0205ad00008fbd
:0205ae00008fbc
:0205af00008fbb
:0205b000008fba
:0205b100008fb9
:0205b200008fb8
:0205b300008fb7
:0205b400008fb6
:0205b500008fb5
:0205b600008fb4
:0205b7000090b2
:0205b8000090b1
:0205b9000090b0
:0205ba000090af
:0205bb000090ae
:0205bc000090ad
:0205bd000090ac
:0205be000090ab
:0205bf000090aa
:0205c0000090a9
:0205c1000091a7
:0205c2000091a6
:0205c3000091a5
:0205c4000091a4
:0205c5000091a3
:0205c6000091a2
:0205c7000091a1
:0205c8000091a0
:0205c90000919f
:0205ca0000919e
:0205cb0000929c
:0205cc0000929b
:0205cd0000929a
:0205ce00009299
:0205cf00009298
:0205d000009297
:0205d100009296
:0205d200009295
:0205d300009294
:0205d400009293
:0205d500009391
:0205d600009390
:0205d70000938f
:0205d80000938e
:0205d90000938d
:0205da0000938c
:0205db0000938b
:0205dc0000938a
:0205dd00009389
:0205de00009388
:0205df00009387
:0205e000009485
:0205e100009484
:0205e200009483
:0205e300009482
:0205e400009481
:0205e500009480
:0205e60000947f
:0205e70000947e
:0205e80000947d
:0205e90000947c
:0205ea0000957a
:0205eb00009579
:0205ec00009578
:0205ed00009577
:0205ee00009576
:0205ef00009575
:0205f000009574
:0205f100009573
:0205f200009572
:0205f300009571
:0205f40000966f
:0205f50000966e
:0205f60000966d
:0205f70000966c
:0205f80000966b
:0205f90000966a
:0205fa00009669
:0205fb00009668
:0205fc00009667
:0205fd00009666
:0205fe00009764
:0205ff00009763
:02060000009761
:02060100009760
:0206020000975f
:0206030000975e
:0206040000975d
:0206050000975c
:0206060000975b
:0206070000975a
:02060800009858
:02060900009857
:02060a00009856
:02060b00009855
:02060c00009854
:02060d00009853
:02060e00009852
:02060f00009851
:02061000009850
:0206110000984f
:0206120000984e
:0206130000994c
:0206140000994b
:0206150000994a
:02061600009949
:02061700009948
:02061800009947
:02061900009946
:02061a00009945
:02061b00009944
:02061c00009943
:02061d00009a41
:02061e00009a40
:02061f00009a3f
:02062000009a3e
:02062100009a3d
:02062200009a3c
:02062300009a3b
:02062400009a3a
:02062500009a39
:02062600009a38
:02062700009b36
:02062800009b35
:02062900009b34
:02062a00009b33
:02062b00009b32
:02062c00009b31
:02062d00009b30
:02062e00009b2f
:02062f00009b2e
:02063000009b2d
:02063100009c2b
:02063200009c2a
:02063300009c29
:02063400009c28
:02063500009c27
:02063600009c26
:02063700009c25
:02063800009c24
:02063900009c23
:02063a00009c22
:02063b00009d20
:02063c00009d1f
:02063d00009d1e
:02063e00009d1d
:02063f00009d1c
:02064000009d1b
:02064100009d1a
:02064200009d19
:02064300009d18
:02064400009d17
:02064500009d16
:02064600009e14
:02064700009e13
:02064800009e12
:02064900009e11
:02064a00009e10
:02064b00009e0f
:02064c00009e0e
:02064d00009e0d
:02064e00009e0c
:02064f00009e0b
:02065000009f09
:02065100009f08
:02065200009f07
:02065300009f06
:02065400009f05
:02065500009f04
:02065600009f03
:02065700009f02
:02065800009f01
:02065900009f00
:02065a0000a0fe
:02065b0000a0fd
:02065c0000a0fc
:02065d0000a0fb
:02065e0000a0fa
:02065f0000a0f9
:0206600000a0f8
:0206610000a0f7
:0206620000a0f6
:0206630000a0f5
:0206640000a1f3
:0206650000a1f2
:0206660000a1f1
:0206670000a1f0
:0206680000a1ef
:0206690000a1ee
:02066a0000a1ed
:02066b0000a1ec
:02066c0000a1eb
:02066d0000a1ea
:02066e0000a2e8
:02066f0000a2e7
:0206700000a2e6
:0206710000a2e5
:0206720000a2e4
:0206730000a2e3
:0206740000a2e2
:0206750000a2e1
:0206760000a2e0
:0206770000a2df
:0206780000a2de
:0206790000a3dc
:02067a0000a3db
:02067b0000a3da
:02067c0000a3d9
:02067d0000a3d8
:02067e0000a3d7
:02067f0000a3d6
:0206800000a3d5
:0206810000a3d4
:0206820000a3d3
:0206830000a4d1
:0206840000a4d0
:0206850000a4cf
:0206860000a4ce
:0206870000a4cd
:0206880000a4cc
:0206890000a4cb
:02068a0000a4ca
:02068b0000a4c9
:02068c0000a4c8
:02068d0000a5c6
:02068e0000a5c5
:02068f0000a5c4
:0206900000a5c3
:0206910000a5c2
:0206920000a5c1
:0206930000a5c0
:0206940000a5bf
:0206950000a5be
:0206960000a5bd
:0206970000a6bb
:0206980000a6ba
:0206990000a6b9
:02069a0000a6b8
:02069b0000a6b7
:02069c0000a6b6
:02069d0000a6b5
:02069e0000a6b4
:02069f0000a6b3
:0206a00000a6b2
:0206a10000a7b0
:0206a20000a7af
:0206a30000a7ae
:0206a40000a7ad
:0206a50000a7ac
:0206a60000a7ab
:0206a70000a7aa
:0206a80000a7a9
:0206a90000a7a8
:0206aa0000a7a7
:0206ab0000a7a6
:0206ac0000a8a4
:0206ad0000a8a3
:0206ae0000a8a2
:0206af0000a8a1
:0206b00000a8a0
:0206b10000a89f
:0206b20000a89e
:0206b30000a89d
:0206b40000a89c
:0206b50000a89b
:0206b60000a999
:0206b70000a998
:0206b80000a997
:0206b90000a996
:0206ba0000a995
:0206bb0000a994
:0206bc0000a993
:0206bd0000a992
:0206be0000a991
:0206bf0000a990
:0206c00000aa8e
:0206c10000aa8d
:0206c20000aa8c
:0206c30000aa8b
:0206c40000aa8a
:0206c50000aa89
:0206c60000aa88
:0206c70000aa87
:0206c80000aa86
:0206c90000aa85
:0206ca0000ab83
:0206cb0000ab82
:0206cc0000ab81
:0206cd0000ab80
:0206ce0000ab7f
:0206cf0000ab7e
:0206d00000ab7d
:0206d10000ab7c
:0206d20000ab7b
:0206d30000ab7a
:0206d40000ac78
:0206d50000ac77
:0206d60000ac76
:0206d70000ac75
:0206d80000ac74
:0206d90000ac73
:0206da0000ac72
:0206db0000ac71
:0206dc0000ac70
:0206dd0000ac6f
:0206de0000ac6e
:0206df0000ad6c
:0206e00000ad6b
:0206e10000ad6a
:0206e20000ad69
:0206e30000ad68
:0206e40000ad67
:0206e50000ad66
:0206e60000ad65
:0206e70000ad64
:0206e80000ad63
:0206e90000ae61
:0206ea0000ae60
:0206eb0000ae5f
:0206ec0000ae5e
:0206ed0000ae5d
:0206ee0000ae5c
:0206ef0000ae5b
:0206f00000ae5a
:0206f10000ae59
:0206f20000ae58
:0206f30000af56
:0206f40000af55
:0206f50000af54
:0206f60000af53
:0206f70000af52
:0206f80000af51
:0206f90000af50
:0206fa0000af4f
:0206fb0000af4e
:0206fc0000af4d
:0206fd0000b04b
:0206fe0000b04a
:0206ff0000b049
:0207000000b047
:0207010000b046
:0207020000b045
:0207030000b044
:0207040000b043
:0207050000b042
:0207060000b041
:0207070000b13f
:0207080000b13e
:0207090000b13d
:02070a0000b13c
:02070b0000b13b
:02070c0000b13a
:02070d0000b139
:02070e0000b138
:02070f0000b137
:0207100000b136
:0207110000b135
:0207120000b233
:0207130000b232
:0207140000b231
:0207150000b230
:0207160000b22f
:0207170000b22e
:0207180000b22d
:0207190000b22c
:02071a0000b22b
:02071b0000b22a
:02071c0000b328
:02071d0000b327
:02071e0000b326
:02071f0000b325
:0207200000b324
:0207210000b323
:0207220000b322
:0207230000b321
:0207240000b320
:0207250000b31f
:0207260000b41d
:0207270000b41c
:0207280000b41b
:0207290000b41a
:02072a0000b419
:02072b0000b418
:02072c0000b417
:02072d0000b416
:02072e0000b415
:02072f0000b414
:0207300000b512
:0207310000b511
:0207320000b510
:0207330000b50f
:0207340000b50e
:0207350000b50d
:0207360000b50c
:0207370000b50b
:0207380000b50a
:0207390000b509
:02073a0000b607
:02073b0000b606
:02073c0000b605
:02073d0000b604
:02073e0000b603
:02073f0000b602
:0207400000b601
:0207410000b600
:0207420000b6ff
:0207430000b6fe
:0207440000b7fc
:0207450000b7fb
:0207460000b7fa
:0207470000b7f9
:0207480000b7f8
:0207490000b7f7
:02074a0000b7f6
:02074b0000b7f5
:02074c0000b7f4
:02074d0000b7f3
:02074e0000b7f2
:02074f0000b8f0
:0207500000b8ef
:0207510000b8ee
:0207520000b8ed
:0207530000b8ec
:0207540000b8eb
:0207550000b8ea
:0207560000b8e9
:0207570000b8e8
:0207580000b8e7
:0207590000b9e5
:02075a0000b9e4
:02075b0000b9e3
:02075c0000b9e2
:02075d0000b9e1
:02075e0000b9e0
:02075f0000b9df
:0207600000b9de
:0207610000b9dd
:0207620000b9dc
:0207630000bada
:0207640000bad9
:0207650000bad8
:0207660000bad7
:0207670000bad6
:0207680000bad5
:0207690000bad4
:02076a0000bad3
:02076b0000bad2
:02076c0000bad1
:02076d0000bbcf
:02076e0000bbce
:02076f0000bbcd
:0207700000bbcc
:0207710000bbcb
:0207720000bbca
:0207730000bbc9
:0207740000bbc8
:0207750000bbc7
:0207760000bbc6
:0207770000bcc4
:0207780000bcc3
:0207790000bcc2
:02077a0000bcc1
:02077b0000bcc0
:02077c0000bcbf
:02077d0000bcbe
:02077e0000bcbd
:02077f0000bcbc
:0207800000bcbb
:0207810000bcba
:0207820000bdb8
:0207830000bdb7
:0207840000bdb6
:0207850000bdb5
:0207860000bdb4
:0207870000bdb3
:0207880000bdb2
:0207890000bdb1
:02078a0000bdb0
:02078b0000bdaf
:02078c0000bead
:02078d0000beac
:02078e0000beab
:02078f0000beaa
:0207900000bea9
:0207910000bea8
:0207920000bea7
:0207930000bea6
:0207940000bea5
:0207950000bea4
:0207960000bfa2
:0207970000bfa1
:0207980000bfa0
:0207990000bf9f
:02079a0000bf9e
:02079b0000bf9d
:02079c0000bf9c
:02079d0000bf9b
:02079e0000bf9a
:02079f0000bf99
:0207a00000c097
:0207a10000c096
:0207a20000c095
:0207a30000c094
:0207a40000c093
:0207a50000c092
:0207a60000c091
:0207a70000c090
:0207a80000c08f
:0207a90000c08e
:0207aa0000c18c
:0207ab0000c18b
:0207ac0000c18a
:0207ad0000c189
:0207ae0000c188
:0207af0000c187
:0207b00000c186
:0207b10000c185
:0207b20000c184
:0207b30000c183
:0207b40000c182
:0207b50000c280
:0207b60000c27f
:0207b70000c27e
:0207b80000c27d
:0207b90000c27c
:0207ba0000c27b
:0207bb0000c27a
:0207bc0000c279
:0207bd0000c278
:0207be0000c277
:0207bf0000c375
:0207c00000c374
:0207c10000c373
:0207c20000c372
:0207c30000c371
:0207c40000c370
:0207c50000c36f
:0207c60000c36e
:0207c70000c36d
:0207c80000c36c
:0207c90000c46a
:0207ca0000c469
:0207cb0000c468
:0207cc0000c467
:0207cd0000c466
:0207ce0000c465
:0207cf0000c464
:0207d00000c463
:0207d10000c462
:0207d20000c461
:0207d30000c55f
:0207d40000c55e
:0207d50000c55d
:0207d60000c55c
:0207d70000c55b
:0207d80000c55a
:0207d90000c559
:0207da0000c558
:0207db0000c557
:0207dc0000c556
:0207dd0000c654
:0207de0000c653
:0207df0000c652
:0207e00000c651
:0207e10000c650
:0207e20000c64f
:0207e30000c64e
:0207e40000c64d
:0207e50000c64c
:0207e60000c64b
:0207e70000c64a
:0207e80000c748
:0207e90000c747
:0207ea0000c746
:0207eb0000c745
:0207ec0000c744
:0207ed0000c743
:0207ee0000c742
:0207ef0000c741
:0207f00000c740
:0207f10000c73f
:0207f20000c83d
:0207f30000c83c
:0207f40000c83b
:0207f50000c83a
:0207f60000c839
:0207f70000c838
:0207f80000c837
:0207f90000c836
:0207fa0000c835
:0207fb0000c834
:0207fc0000c932
:0207fd0000c931
:0207fe0000c930
:0207ff0000c92f
:0208000000c92d
:0208010000c92c
:0208020000c92b
:0208030000c92a
:0208040000c929
:0208050000c928
:0208060000ca26
:0208070000ca25
:0208080000ca24
:0208090000ca23
:02080a0000ca22
:02080b0000ca21
:02080c0000ca20
:02080d0000ca1f
:02080e0000ca1e
:02080f0000ca1d
:0208100000cb1b
:0208110000cb1a
:0208120000cb19
:0208130000cb18
:0208140000cb17
:0208150000cb16
:0208160000cb15
:0208170000cb14
:0208180000cb13
:0208190000cb12
:02081a0000cb11
:02081b0000cc0f
:02081c0000cc0e
:02081d0000cc0d
:02081e0000cc0c
:02081f0000cc0b
:0208200000cc0a
:0208210000cc09
:0208220000cc08
:0208230000cc07
:0208240000cc06
:0208250000cd04
:0208260000cd03
:0208270000cd02
:0208280000cd01
:0208290000cd00
:02082a0000cdff
:02082b0000cdfe
:02082c0000cdfd
:02082d0000cdfc
:02082e0000cdfb
:02082f0000cef9
:0208300000cef8
:0208310000cef7
:0208320000cef6
:0208330000cef5
:0208340000cef4
:0208350000cef3
:0208360000cef2
:0208370000cef1
:0208380000cef0
:0208390000cfee
:02083a0000cfed
:02083b0000cfec
:02083c0000cfeb
:02083d0000cfea
:02083e0000cfe9
:02083f0000cfe8
:0208400000cfe7
:0208410000cfe6
:0208420000cfe5
:0208430000d0e3
:0208440000d0e2
:0208450000d0e1
:0208460000d0e0
:0208470000d0df
:0208480000d0de
:0208490000d0dd
:02084a0000d0dc
:02084b0000d0db
:02084c0000d0da
:02084d0000d0d9
:02084e0000d1d7
:02084f0000d1d6
:0208500000d1d5
:0208510000d1d4
:0208520000d1d3
:0208530000d1d2
:0208540000d1d1
:0208550000d1d0
:0208560000d1cf
:0208570000d1ce
:0208580000d2cc
:0208590000d2cb
:02085a0000d2ca
:02085b0000d2c9
:02085c0000d2c8
:02085d0000d2c7
:02085e0000d2c6
:02085f0000d2c5
:0208600000d2c4
:0208610000d2c3
:0208620000d3c1
:0208630000d3c0
:0208640000d3bf
:0208650000d3be
:0208660000d3bd
:0208670000d3bc
:0208680000d3bb
:0208690000d3ba
:02086a0000d3b9
:02086b0000d3b8
:02086c0000d4b6
:02086d0000d4b5
:02086e0000d4b4
:02086f0000d4b3
:0208700000d4b2
:0208710000d4b1
:0208720000d4b0
:0208730000d4af
:0208740000d4ae
:0208750000d4ad
:0208760000d4ac
:0208770000d5aa
:0208780000d5a9
:0208790000d5a8
:02087a0000d5a7
:02087b0000d5a6
:02087c0000d5a5
:02087d0000d5a4
:02087e0000d5a3
:02087f0000d5a2
:0208800000d5a1
:0208810000d69f
:0208820000d69e
:0208830000d69d
:0208840000d69c
:0208850000d69b
:0208860000d69a
:0208870000d699
:0208880000d698
:0208890000d697
:02088a0000d696
:02088b0000d794
:02088c0000d793
:02088d0000d792
:02088e0000d791
:02088f0000d790
:0208900000d78f
:0208910000d78e
:0208920000d78d
:0208930000d78c
:0208940000d78b
:0208950000d889
:0208960000d888
:0208970000d887
:0208980000d886
:0208990000d885
:02089a0000d884
:02089b0000d883
:02089c0000d882
:02089d0000d881
:02089e0000d880
:02089f0000d97e
:0208a00000d97d
:0208a10000d97c
:0208a20000d97b
:0208a30000d97a
:0208a40000d979
:0208a50000d978
:0208a60000d977
:0208a70000d976
:0208a80000d975
:0208a90000d974
:0208aa0000da72
:0208ab0000da71
:0208ac0000da70
:0208ad0000da6f
:0208ae0000da6e
:0208af0000da6d
:0208b00000da6c
:0208b10000da6b
:0208b20000da6a
:0208b30000da69
:0208b40000db67
:0208b50000db66
:0208b60000db65
:0208b70000db64
:0208b80000db63
:0208b90000db62
:0208ba0000db61
:0208bb0000db60
:0208bc0000db5f
:0208bd0000db5e
:0208be0000dc5c
:0208bf0000dc5b
:0208c00000dc5a
:0208c10000dc59
:0208c20000dc58
:0208c30000dc57
:0208c40000dc56
:0208c50000dc55
:0208c60000dc54
:0208c70000dc53
:0208c80000dd51
:0208c90000dd50
:0208ca0000dd4f
:0208cb0000dd4e
:0208cc0000dd4d
:0208cd0000dd4c
:0208ce0000dd4b
:0208cf0000dd4a
:0208d00000dd49
:0208d10000dd48
:0208d20000de46
:0208d30000de45
:0208d40000de44
:0208d50000de43
:0208d60000de42
:0208d70000de41
:0208d80000de40
:0208d90000de3f
:0208da0000de3e
:0208db0000de3d
:0208dc0000de3c
:0208dd0000df3a
:0208de0000df39
:0208df0000df38
:0208e00000df37
:0208e10000df36
:0208e20000df35
:0208e30000df34
:0208e40000df33
:0208e50000df32
:0208e60000df31
:0208e70000e02f
:0208e80000e02e
:0208e90000e02d
:0208ea0000e02c
:0208eb0000e02b
:0208ec0000e02a
:0208ed0000e029
:0208ee0000e028
:0208ef0000e027
:0208f00000e026
:0208f10000e124
:0208f20000e123
:0208f30000e122
:0208f40000e121
:0208f50000e120
:0208f60000e11f
:0208f70000e11e
:0208f80000e11d
:0208f90000e11c
:0208fa0000e11b
:0208fb0000e219
:0208fc0000e218
:0208fd0000e217
:0208fe0000e216
:0208ff0000e215
:0209000000e213
:0209010000e212
:0209020000e211
:0209030000e210
:0209040000e20f
:0209050000e30d
:0209060000e30c
:0209070000e30b
:0209080000e30a
:0209090000e309
:02090a0000e308
:02090b0000e307
:02090c0000e306
:02090d0000e305
:02090e0000e304
:02090f0000e303
:0209100000e401
:0209110000e400
:0209120000e4ff
:0209130000e4fe
:0209140000e4fd
:0209150000e4fc
:0209160000e4fb
:0209170000e4fa
:0209180000e4f9
:0209190000e4f8
:02091a0000e5f6
:02091b0000e5f5
:02091c0000e5f4
:02091d0000e5f3
:02091e0000e5f2
:02091f0000e5f1
:0209200000e5f0
:0209210000e5ef
:0209220000e5ee
:0209230000e5ed
:0209240000e6eb
:0209250000e6ea
:0209260000e6e9
:0209270000e6e8
:0209280000e6e7
:0209290000e6e6
:02092a0000e6e5
:02092b0000e6e4
:02092c0000e6e3
:02092d0000e6e2
:02092e0000e7e0
:02092f0000e7df
:0209300000e7de
:0209310000e7dd
:0209320000e7dc
:0209330000e7db
:0209340000e7da
:0209350000e7d9
:0209360000e7d8
:0209370000e7d7
:0209380000e8d5
:0209390000e8d4
:02093a0000e8d3
:02093b0000e8d2
:02093c0000e8d1
:02093d0000e8d0
:02093e0000e8cf
:02093f0000e8ce
:0209400000e8cd
:0209410000e8cc
:0209420000e8cb
:0209430000e9c9
:0209440000e9c8
:0209450000e9c7
:0209460000e9c6
:0209470000e9c5
:0209480000e9c4
:0209490000e9c3
:02094a0000e9c2
:02094b0000e9c1
:02094c0000e9c0
:02094d0000eabe
:02094e0000eabd
:02094f0000eabc
:0209500000eabb
:0209510000eaba
:0209520000eab9
:0209530000eab8
:0209540000eab7
:0209550000eab6
:0209560000eab5
:0209570000ebb3
:0209580000ebb2
:0209590000ebb1
:02095a0000ebb0
:02095b0000ebaf
:02095c0000ebae
:02095d0000ebad
:02095e0000ebac
:02095f0000ebab
:0209600000ebaa
:0209610000eca8
:0209620000eca7
:0209630000eca6
:0209640000eca5
:0209650000eca4
:0209660000eca3
:0209670000eca2
:0209680000eca1
:0209690000eca0
:02096a0000ec9f
:02096b0000ed9d
:02096c0000ed9c
:02096d0000ed9b
:02096e0000ed9a
:02096f0000ed99
:0209700000ed98
:0209710000ed97
:0209720000ed96
:0209730000ed95
:0209740000ed94
:0209750000ed93
:0209760000ee91
:0209770000ee90
:0209780000ee8f
:0209790000ee8e
:02097a0000ee8d
:02097b0000ee8c
:02097c0000ee8b
:02097d0000ee8a
:02097e0000ee89
:02097f0000ee88
:0209800000ef86
:0209810000ef85
:0209820000ef84
:0209830000ef83
:0209840000ef82
:0209850000ef81
:0209860000ef80
:0209870000ef7f
:0209880000ef7e
:0209890000ef7d
:02098a0000f07b
:02098b0000f07a
:02098c0000f079
:02098d0000f078
:02098e0000f077
:02098f0000f076
:0209900000f075
:0209910000f074
:0209920000f073
:0209930000f072
:0209940000f170
:0209950000f16f
:0209960000f16e
:0209970000f16d
:0209980000f16c
:0209990000f16b
:02099a0000f16a
:02099b0000f169
:02099c0000f168
:02099d0000f167
:02099e0000f265
:02099f0000f264
:0209a00000f263
:0209a10000f262
:0209a20000f261
:0209a30000f260
:0209a40000f25f
:0209a50000f25e
:0209a60000f25d
:0209a70000f25c
:0209a80000f25b
:0209a90000f359
:0209aa0000f358
:0209ab0000f357
:0209ac0000f356
:0209ad0000f355
:0209ae0000f354
:0209af0000f353
:0209b00000f352
:0209b10000f351
:0209b20000f350
:0209b30000f44e
:0209b40000f44d
:0209b50000f44c
:0209b60000f44b
:0209b70000f44a
:0209b80000f449
:0209b90000f448
:0209ba0000f447
:0209bb0000f446
:0209bc0000f445
:0209bd0000f543
:0209be0000f542
:0209bf0000f541
:0209c00000f540
:0209c10000f53f
:0209c20000f53e
:0209c30000f53d
:0209c40000f53c
:0209c50000f53b
:0209c60000f53a
:0209c70000f638
:0209c80000f637
:0209c90000f636
:0209ca0000f635
:0209cb0000f634
:0209cc0000f633
:0209cd0000f632
:0209ce0000f631
:0209cf0000f630
:0209d00000f62f
:0209d10000f72d
:0209d20000f72c
:0209d30000f72b
:0209d40000f72a
:0209d50000f729
:0209d60000f728
:0209d70000f727
:0209d80000f726
:0209d90000f725
:0209da0000f724
:0209db0000f723
:0209dc0000f821
:0209dd0000f820
:0209de0000f81f
:0209df0000f81e
:0209e00000f81d
:0209e10000f81c
:0209e20000f81b
:0209e30000f81a
:0209e40000f819
:0209e50000f818
:0209e60000f916
:0209e70000f915
:0209e80000f914
:0209e90000f913
:0209ea0000f912
:0209eb0000f911
:0209ec0000f910
:0209ed0000f90f
:0209ee0000f90e
:0209ef0000f90d
:0209f00000fa0b
:0209f10000fa0a
:0209f20000fa09
:0209f30000fa08
:0209f40000fa07
:0209f50000fa06
:0209f60000fa05
:0209f70000fa04
:0209f80000fa03
:0209f90000fa02
:0209fa0000fb00
:0209fb0000fbff
:0209fc0000fbfe
:0209fd0000fbfd
:0209fe0000fbfc
:0209ff0000fbfb
:020a000000fbf9
:020a010000fbf8
:020a020000fbf7
:020a030000fbf6
:020a040000fcf4
:020a050000fcf3
:020a060000fcf2
:020a070000fcf1
:020a080000fcf0
:020a090000fcef
:020a0a0000fcee
:020a0b0000fced
:020a0c0000fcec
:020a0d0000fceb
:020a0e0000fcea
:020a0f0000fde8
:020a100000fde7
:020a110000fde6
:020a120000fde5
:020a130000fde4
:020a140000fde3
:020a150000fde2
:020a160000fde1
:020a170000fde0
:020a180000fddf
:020a190000fedd
:020a1a0000fedc
:020a1b0000fedb
:020a1c0000feda
:020a1d0000fed9
:020a1e0000fed8
:020a1f0000fed7
:020a200000fed6
:020a210000fed5
:020a220000fed4
:020a230000ffd2
:020a240000ffd1
:020a250000ffd0
:020a260000ffcf
:020a270000ffce
:020a280000ffcd
:020a290000ffcc
:020a2a0000ffcb
:020a2b0000ffca
:020a2c0000ffc9
:020a2d000100c6
:020a2e000100c5
:020a2f000100c4
:020a30000100c3
:020a31000100c2
:020a32000100c1
:020a33000100c0
:020a34000100bf
:020a35000100be
:020a36000100bd
:020a37000100bc
:020a38000101ba
:020a39000101b9
:020a3a000101b8
:020a3b000101b7
:020a3c000101b6
:020a3d000101b5
:020a3e000101b4
:020a3f000101b3
:020a40000101b2
:020a41000101b1
:020a42000102af
:020a43000102ae
:020a44000102ad
:020a45000102ac
:020a46000102ab
:020a47000102aa
:020a48000102a9
:020a49000102a8
:020a4a000102a7
:020a4b000102a6
:020a4c000103a4
:020a4d000103a3
:020a4e000103a2
:020a4f000103a1
:020a50000103a0
:020a510001039f
:020a520001039e
:020a530001039d
:020a540001039c
:020a550001039b
:020a5600010499
:020a5700010498
:020a5800010497
:020a5900010496
:020a5a00010495
:020a5b00010494
:020a5c00010493
:020a5d00010492
:020a5e00010491
:020a5f00010490
:020a600001058e
:020a610001058d
:020a620001058c
:020a630001058b
:020a640001058a
:020a6500010589
:020a6600010588
:020a6700010587
:020a6800010586
:020a6900010585
:020a6a00010584
:020a6b00010682
:020a6c00010681
:020a6d00010680
:020a6e0001067f
:020a6f0001067e
:020a700001067d
:020a710001067c
:020a720001067b
:020a730001067a
:020a7400010679
:020a7500010777
:020a7600010776
:020a7700010775
:020a7800010774
:020a7900010773
:020a7a00010772
:020a7b00010771
:020a7c00010770
:020a7d0001076f
:020a7e0001076e
:020a7f0001086c
:020a800001086b
:020a810001086a
:020a8200010869
:020a8300010868
:020a8400010867
:020a8500010866
:020a8600010865
:020a8700010864
:020a8800010863
:020a8900010961
:020a8a00010960
:020a8b0001095f
:020a8c0001095e
:020a8d0001095d
:020a8e0001095c
:020a8f0001095b
:020a900001095a
:020a9100010959
:020a9200010958
:020a9300010a56
:020a9400010a55
:020a9500010a54
:020a9600010a53
:020a9700010a52
:020a9800010a51
:020a9900010a50
:020a9a00010a4f
:020a9b00010a4e
:020a9c00010a4d
:020a9d00010a4c
:020a9e00010b4a
:020a9f00010b49
:020aa000010b48
:020aa100010b47
:020aa200010b46
:020aa300010b45
:020aa400010b44
:020aa500010b43
:020aa600010b42
:020aa700010b41
:020aa800010c3f
:020aa900010c3e
:020aaa00010c3d
:020aab00010c3c
:020aac00010c3b
:020aad00010c3a
:020aae00010c39
:020aaf00010c38
:020ab000010c37
:020ab100010c36
:020ab200010d34
:020ab300010d33
:020ab400010d32
:020ab500010d31
:020ab600010d30
:020ab700010d2f
:020ab800010d2e
:020ab900010d2d
:020aba00010d2c
:020abb00010d2b
:020abc00010e29
:020abd00010e28
:020abe00010e27
:020abf00010e26
:020ac000010e25
:020ac100010e24
:020ac200010e23
:020ac300010e22
:020ac400010e21
:020ac500010e20
:020ac600010f1e
:020ac700010f1d
:020ac800010f1c
:020ac900010f1b
:020aca00010f1a
:020acb00010f19
:020acc00010f18
:020acd00010f17
:020ace00010f16
:020acf00010f15
:020ad000010f14
:020ad100011012
:020ad200011011
:020ad300011010
:020ad40001100f
:020ad50001100e
:020ad60001100d
:020ad70001100c
:020ad80001100b
:020ad90001100a
:020ada00011009
:020adb00011107
:020adc00011106
:020add00011105
:020ade00011104
:020adf00011103
:020ae000011102
:020ae100011101
:020ae200011100
:020ae3000111ff
:020ae4000111fe
:020ae5000112fc
:020ae6000112fb
:020ae7000112fa
:020ae8000112f9
:020ae9000112f8
:020aea000112f7
:020aeb000112f6
:020aec000112f5
:020aed000112f4
:020aee000112f3
:020aef000113f1
:020af0000113f0
:020af1000113ef
:020af2000113ee
:020af3000113ed
:020af4000113ec
:020af5000113eb
:020af6000113ea
:020af7000113e9
:020af8000113e8
:020af9000113e7
:020afa000114e5
:020afb000114e4
:020afc000114e3
:020afd000114e2
:020afe000114e1
:020aff000114e0
:020b00000114de
:020b01000114dd
:020b02000114dc
:020b03000114db
:020b04000115d9
:020b05000115d8
:020b06000115d7
:020b07000115d6
:020b08000115d5
:020b09000115d4
:020b0a000115d3
:020b0b000115d2
:020b0c000115d1
:020b0d000115d0
:020b0e000116ce
:020b0f000116cd
:020b10000116cc
:020b11000116cb
:020b12000116ca
:020b13000116c9
:020b14000116c8
:020b15000116c7
:020b16000116c6
:020b17000116c5
:020b18000117c3
:020b19000117c2
:020b1a000117c1
:020b1b000117c0
:020b1c000117bf
:020b1d000117be
:020b1e000117bd
:020b1f000117bc
:020b20000117bb
:020b21000117ba
:020b22000118b8
:020b23000118b7
:020b24000118b6
:020b25000118b5
:020b26000118b4
:020b27000118b3
:020b28000118b2
:020b29000118b1
:020b2a000118b0
:020b2b000118af
:020b2c000118ae
:020b2d000119ac
:020b2e000119ab
:020b2f000119aa
:020b30000119a9
:020b31000119a8
:020b32000119a7
:020b33000119a6
:020b34000119a5
:020b35000119a4
:020b36000119a3
:020b3700011aa1
:020b3800011aa0
:020b3900011a9f
:020b3a00011a9e
:020b3b00011a9d
:020b3c00011a9c
:020b3d00011a9b
:020b3e00011a9a
:020b3f00011a99
:020b4000011a98
:020b4100011b96
:020b4200011b95
:020b4300011b94
:020b4400011b93
:020b4500011b92
:020b4600011b91
:020b4700011b90
:020b4800011b8f
:020b4900011b8e
:020b4a00011b8d
:020b4b00011c8b
:020b4c00011c8a
:020b4d00011c89
:020b4e00011c88
:020b4f00011c87
:020b5000011c86
:020b5100011c85
:020b5200011c84
:020b5300011c83
:020b5400011c82
:020b5500011d80
:020b5600011d7f
:020b5700011d7e
:020b5800011d7d
:020b5900011d7c
:020b5a00011d7b
:020b5b00011d7a
:020b5c00011d79
:020b5d00011d78
:020b5e00011d77
:020b5f00011d76
:020b6000011e74
:020b6100011e73
:020b6200011e72
:020b6300011e71
:020b6400011e70
:020b6500011e6f
:020b6600011e6e
:020b6700011e6d
:020b6800011e6c
:020b6900011e6b
:020b6a00011f69
:020b6b00011f68
:020b6c00011f67
:020b6d00011f66
:020b6e00011f65
:020b6f00011f64
:020b7000011f63
:020b7100011f62
:020b7200011f61
:020b7300011f60
:020b740001205e
:020b750001205d
:020b760001205c
:020b770001205b
:020b780001205a
:020b7900012059
:020b7a00012058
:020b7b00012057
:020b7c00012056
:020b7d00012055
:020b7e00012153
:020b7f00012152
:020b8000012151
:020b8100012150
:020b820001214f
:020b830001214e
:020b840001214d
:020b850001214c
:020b860001214b
:020b870001214a
:020b8800012149
:020b8900012247
:020b8a00012246
:020b8b00012245
:020b8c00012244
:020b8d00012243
:020b8e00012242
:020b8f00012241
:020b9000012240
:020b910001223f
:020b920001223e
:020b930001233c
:020b940001233b
:020b950001233a
:020b9600012339
:020b9700012338
:020b9800012337
:020b9900012336
:020b9a00012335
:020b9b00012334
:020b9c00012333
:020b9d00012431
:020b9e00012430
:020b9f0001242f
:020ba00001242e
:020ba10001242d
:020ba20001242c
:020ba30001242b
:020ba40001242a
:020ba500012429
:020ba600012428
:020ba700012526
:020ba800012525
:020ba900012524
:020baa00012523
:020bab00012522
:020bac00012521
:020bad00012520
:020bae0001251f
:020baf0001251e
:020bb00001251d
:020bb10001261b
:020bb20001261a
:020bb300012619
:020bb400012618
:020bb500012617
:020bb600012616
:020bb700012615
:020bb800012614
:020bb900012613
:020bba00012612
:020bbb00012611
:020bbc0001270f
:020bbd0001270e
:020bbe0001270d
:020bbf0001270c
:020bc00001270b
:020bc10001270a
:020bc200012709
:020bc300012708
:020bc400012707
:020bc500012706
:020bc600012804
:020bc700012803
:020bc800012802
:020bc900012801
:020bca00012800
:020bcb000128ff
:020bcc000128fe
:020bcd000128fd
:020bce000128fc
:020bcf000128fb
:020bd0000129f9
:020bd1000129f8
:020bd2000129f7
:020bd3000129f6
:020bd4000129f5
:020bd5000129f4
:020bd6000129f3
:020bd7000129f2
:020bd8000129f1
:020bd9000129f0
:020bda00012aee
:020bdb00012aed
:020bdc00012aec
:020bdd00012aeb
:020bde00012aea
:020bdf00012ae9
:020be000012ae8
:020be100012ae7
:020be200012ae6
:020be300012ae5
:020be400012be3
:020be500012be2
:020be600012be1
:020be700012be0
:020be800012bdf
:020be900012bde
:020bea00012bdd
:020beb00012bdc
:020bec00012bdb
:020bed00012bda
:020bee00012bd9
:020bef00012cd7
:020bf000012cd6
:020bf100012cd5
:020bf200012cd4
:020bf300012cd3
:020bf400012cd2
:020bf500012cd1
:020bf600012cd0
:020bf700012ccf
:020bf800012cce
:020bf900012dcc
:020bfa00012dcb
:020bfb00012dca
:020bfc00012dc9
:020bfd00012dc8
:020bfe00012dc7
:020bff00012dc6
:020c0000012dc4
:020c0100012dc3
:020c0200012dc2
:020c0300012ec0
:020c0400012ebf
:020c0500012ebe
:020c0600012ebd
:020c0700012ebc
:020c0800012ebb
:020c0900012eba
:020c0a00012eb9
:020c0b00012eb8
:020c0c00012eb7
:020c0d00012fb5
:020c0e00012fb4
:020c0f00012fb3
:020c1000012fb2
:020c1100012fb1
:020c1200012fb0
:020c1300012faf
:020c1400012fae
:020c1500012fad
:020c1600012fac
:020c1700012fab
:020c18000130a9
:020c19000130a8
:020c1a000130a7
:020c1b000130a6
:020c1c000130a5
:020c1d000130a4
:020c1e000130a3
:020c1f000130a2
:020c20000130a1
:020c21000130a0
:020c220001319e
:020c230001319d
:020c240001319c
:020c250001319b
:020c260001319a
:020c2700013199
:020c2800013198
:020c2900013197
:020c2a00013196
:020c2b00013195
:020c2c00013293
:020c2d00013292
:020c2e00013291
:020c2f00013290
:020c300001328f
:020c310001328e
:020c320001328d
:020c330001328c
:020c340001328b
:020c350001328a
:020c3600013388
:020c3700013387
:020c3800013386
:020c3900013385
:020c3a00013384
:020c3b00013383
:020c3c00013382
:020c3d00013381
:020c3e00013380
:020c3f0001337f
:020c400001347d
:020c410001347c
:020c420001347b
:020c430001347a
:020c4400013479
:020c4500013478
:020c4600013477
:020c4700013476
:020c4800013475
:020c4900013474
:020c4a00013473
:020c4b00013571
:020c4c00013570
:020c4d0001356f
:020c4e0001356e
:020c4f0001356d
:020c500001356c
:020c510001356b
:020c520001356a
:020c5300013569
:020c5400013568
:020c5500013666
:020c5600013665
:020c5700013664
:020c5800013663
:020c5900013662
:020c5a00013661
:020c5b00013660
:020c5c0001365f
:020c5d0001365e
:020c5e0001365d
:020c5f0001375b
:020c600001375a
:020c6100013759
:020c6200013758
:020c6300013757
:020c6400013756
:020c6500013755
:020c6600013754
:020c6700013753
:020c6800013752
:020c6900013850
:020c6a0001384f
:020c6b0001384e
:020c6c0001384d
:020c6d0001384c
:020c6e0001384b
:020c6f0001384a
:020c7000013849
:020c7100013848
:020c7200013847
:020c7300013945
:020c7400013944
:020c7500013943
:020c7600013942
:020c7700013941
:020c7800013940
:020c790001393f
:020c7a0001393e
:020c7b0001393d
:020c7c0001393c
:020c7d0001393b
:020c7e00013a39
:020c7f00013a38
:020c8000013a37
:020c8100013a36
:020c8200013a35
:020c8300013a34
:020c8400013a33
:020c8500013a32
:020c8600013a31
:020c8700013a30
:020c8800013b2e
:020c8900013b2d
:020c8a00013b2c
:020c8b00013b2b
:020c8c00013b2a
:020c8d00013b29
:020c8e00013b28
:020c8f00013b27
:020c9000013b26
:020c9100013b25
:020c9200013c23
:020c9300013c22
:020c9400013c21
:020c9500013c20
:020c9600013c1f
:020c9700013c1e
:020c9800013c1d
:020c9900013c1c
:020c9a00013c1b
:020c9b00013c1a
:020c9c00013d18
:020c9d00013d17
:020c9e00013d16
:020c9f00013d15
:020ca000013d14
:020ca100013d13
:020ca200013d12
:020ca300013d11
:020ca400013d10
:020ca500013d0f
:020ca600013d0e
:020ca700013e0c
:020ca800013e0b
:020ca900013e0a
:020caa00013e09
:020cab00013e08
:020cac00013e07
:020cad00013e06
:020cae00013e05
:020caf00013e04
:020cb000013e03
:020cb100013f01
:020cb200013f00
:020cb300013fff
:020cb400013ffe
:020cb500013ffd
:020cb600013ffc
:020cb700013ffb
:020cb800013ffa
:020cb900013ff9
:020cba00013ff8
:020cbb000140f6
:020cbc000140f5
:020cbd000140f4
:020cbe000140f3
:020cbf000140f2
:020cc0000140f1
:020cc1000140f0
:020cc2000140ef
:020cc3000140ee
:020cc4000140ed
:020cc5000141eb
:020cc6000141ea
:020cc7000141e9
:020cc8000141e8
:020cc9000141e7
:020cca000141e6
:020ccb000141e5
:020ccc000141e4
:020ccd000141e3
:020cce000141e2
:020ccf000142e0
:020cd0000142df
:020cd1000142de
:020cd2000142dd
:020cd3000142dc
:020cd4000142db
:020cd5000142da
:020cd6000142d9
:020cd7000142d8
:020cd8000142d7
:020cd9000142d6
:020cda000143d4
:020cdb000143d3
:020cdc000143d2
:020cdd000143d1
:020cde000143d0
:020cdf000143cf
:020ce0000143ce
:020ce1000143cd
:020ce2000143cc
:020ce3000143cb
:020ce4000144c9
:020ce5000144c8
:020ce6000144c7
:020ce7000144c6
:020ce8000144c5
:020ce9000144c4
:020cea000144c3
:020ceb000144c2
:020cec000144c1
:020ced000144c0
:020cee000145be
:020cef000145bd
:020cf0000145bc
:020cf1000145bb
:020cf2000145ba
:020cf3000145b9
:020cf4000145b8
:020cf5000145b7
:020cf6000145b6
:020cf7000145b5
:020cf8000146b3
:020cf9000146b2
:020cfa000146b1
:020cfb000146b0
:020cfc000146af
:020cfd000146ae
:020cfe000146ad
:020cff000146ac
:020d00000146aa
:020d01000146a9
:020d02000146a8
:020d03000147a6
:020d04000147a5
:020d05000147a4
:020d06000147a3
:020d07000147a2
:020d08000147a1
:020d09000147a0
:020d0a0001479f
:020d0b0001479e
:020d0c0001479d
:020d0d0001489b
:020d0e0001489a
:020d0f00014899
:020d1000014898
:020d1100014897
:020d1200014896
:020d1300014895
:020d1400014894
:020d1500014893
:020d1600014892
:020d1700014990
:020d180001498f
:020d190001498e
:020d1a0001498d
:020d1b0001498c
:020d1c0001498b
:020d1d0001498a
:020d1e00014989
:020d1f00014988
:020d2000014987
:020d2100014a85
:020d2200014a84
:020d2300014a83
:020d2400014a82
:020d2500014a81
:020d2600014a80
:020d2700014a7f
:020d2800014a7e
:020d2900014a7d
:020d2a00014a7c
:020d2b00014b7a
:020d2c00014b79
:020d2d00014b78
:020d2e00014b77
:020d2f00014b76
:020d3000014b75
:020d3100014b74
:020d3200014b73
:020d3300014b72
:020d3400014b71
:020d3500014b70
:020d3600014c6e
:020d3700014c6d
:020d3800014c6c
:020d3900014c6b
:020d3a00014c6a
:020d3b00014c69
:020d3c00014c68
:020d3d00014c67
:020d3e00014c66
:020d3f00014c65
:020d4000014d63
:020d4100014d62
:020d4200014d61
:020d4300014d60
:020d4400014d5f
:020d4500014d5e
:020d4600014d5d
:020d4700014d5c
:020d4800014d5b
:020d4900014d5a
:020d4a00014e58
:020d4b00014e57
:020d4c00014e56
:020d4d00014e55
:020d4e00014e54
:020d4f00014e53
:020d5000014e52
:020d5100014e51
:020d5200014e50
:020d5300014e4f
:020d5400014f4d
:020d5500014f4c
:020d5600014f4b
:020d5700014f4a
:020d5800014f49
:020d5900014f48
:020d5a00014f47
:020d5b00014f46
:020d5c00014f45
:020d5d00014f44
:020d5e00014f43
:020d5f00015041
:020d6000015040
:020d610001503f
:020d620001503e
:020d630001503d
:020d640001503c
:020d650001503b
:020d660001503a
:020d6700015039
:020d6800015038
:020d6900015136
:020d6a00015135
:020d6b00015134
:020d6c00015133
:020d6d00015132
:020d6e00015131
:020d6f00015130
:020d700001512f
:020d710001512e
:020d720001512d
:020d730001522b
:020d740001522a
:020d7500015229
:020d7600015228
:020d7700015227
:020d7800015226
:020d7900015225
:020d7a00015224
:020d7b00015223
:020d7c00015222
:020d7d00015320
:020d7e0001531f
:020d7f0001531e
:020d800001531d
:020d810001531c
:020d820001531b
:020d830001531a
:020d8400015319
:020d8500015318
:020d8600015317
:020d8700015415
:020d8800015414
:020d8900015413
:020d8a00015412
:020d8b00015411
:020d8c00015410
:020d8d0001540f
:020d8e0001540e
:020d8f0001540d
:020d900001540c
:020d910001540b
:020d9200015509
:020d9300015508
:020d9400015507
:020d9500015506
:020d9600015505
:020d9700015504
:020d9800015503
:020d9900015502
:020d9a00015501
:020d9b00015500
:020d9c000156fe
:020d9d000156fd
:020d9e000156fc
:020d9f000156fb
:020da0000156fa
:020da1000156f9
:020da2000156f8
:020da3000156f7
:020da4000156f6
:020da5000156f5
:020da6000157f3
:020da7000157f2
:020da8000157f1
:020da9000157f0
:020daa000157ef
:020dab000157ee
:020dac000157ed
:020dad000157ec
:020dae000157eb
:020daf000157ea
:020db0000158e8
:020db1000158e7
:020db2000158e6
:020db3000158e5
:020db4000158e4
:020db5000158e3
:020db6000158e2
:020db7000158e1
:020db8000158e0
:020db9000158df
:020dba000158de
:020dbb000159dc
:020dbc000159db
:020dbd000159da
:020dbe000159d9
:020dbf000159d8
:020dc0000159d7
:020dc1000159d6
:020dc2000159d5
:020dc3000159d4
:020dc4000159d3
:020dc500015ad1
:020dc600015ad0
:020dc700015acf
:020dc800015ace
:020dc900015acd
:020dca00015acc
:020dcb00015acb
:020dcc00015aca
:020dcd00015ac9
:020dce00015ac8
:020dcf00015bc6
:020dd000015bc5
:020dd100015bc4
:020dd200015bc3
:020dd300015bc2
:020dd400015bc1
:020dd500015bc0
:020dd600015bbf
:020dd700015bbe
:020dd800015bbd
:020dd900015cbb
:020dda00015cba
:020ddb00015cb9
:020ddc00015cb8
:020ddd00015cb7
:020dde00015cb6
:020ddf00015cb5
:020de000015cb4
:020de100015cb3
:020de200015cb2
:020de300015db0
:020de400015daf
:020de500015dae
:020de600015dad
:020de700015dac
:020de800015dab
:020de900015daa
:020dea00015da9
:020deb00015da8
:020dec00015da7
:020ded00015da6
:020dee00015ea4
:020def00015ea3
:020df000015ea2
:020df100015ea1
:020df200015ea0
:020df300015e9f
:020df400015e9e
:020df500015e9d
:020df600015e9c
:020df700015e9b
:020df800015f99
:020df900015f98
:020dfa00015f97
:020dfb00015f96
:020dfc00015f95
:020dfd00015f94
:020dfe00015f93
:020dff00015f92
:020e0000015f90
:020e0100015f8f
:020e020001608d
:020e030001608c
:020e040001608b
:020e050001608a
:020e0600016089
:020e0700016088
:020e0800016087
:020e0900016086
:020e0a00016085
:020e0b00016084
:020e0c00016182
:020e0d00016181
:020e0e00016180
:020e0f0001617f
:020e100001617e
:020e110001617d
:020e120001617c
:020e130001617b
:020e140001617a
:020e1500016179
:020e1600016178
:020e1700016276
:020e1800016275
:020e1900016274
:020e1a00016273
:020e1b00016272
:020e1c00016271
:020e1d00016270
:020e1e0001626f
:020e1f0001626e
:020e200001626d
:020e210001636b
:020e220001636a
:020e2300016369
:020e2400016368
:020e2500016367
:020e2600016366
:020e2700016365
:020e2800016364
:020e2900016363
:020e2a00016362
:020e2b00016460
:020e2c0001645f
:020e2d0001645e
:020e2e0001645d
:020e2f0001645c
:020e300001645b
:020e310001645a
:020e3200016459
:020e3300016458
:020e3400016457
:020e3500016555
:020e3600016554
:020e3700016553
:020e3800016552
:020e3900016551
:020e3a00016550
:020e3b0001654f
:020e3c0001654e
:020e3d0001654d
:020e3e0001654c
:020e3f0001664a
:020e4000016649
:020e4100016648
:020e4200016647
:020e4300016646
:020e4400016645
:020e4500016644
:020e4600016643
:020e4700016642
:020e4800016641
:020e4900016640
:020e4a0001673e
:020e4b0001673d
:020e4c0001673c
:020e4d0001673b
:020e4e0001673a
:020e4f00016739
:020e5000016738
:020e5100016737
:020e5200016736
:020e5300016735
:020e5400016833
:020e5500016832
:020e5600016831
:020e5700016830
:020e580001682f
:020e590001682e
:020e5a0001682d
:020e5b0001682c
:020e5c0001682b
:020e5d0001682a
:020e5e00016928
:020e5f00016927
:020e6000016926
:020e6100016925
:020e6200016924
:020e6300016923
:020e6400016922
:020e6500016921
:020e6600016920
:020e670001691f
:020e6800016a1d
:020e6900016a1c
:020e6a00016a1b
:020e6b00016a1a
:020e6c00016a19
:020e6d00016a18
:020e6e00016a17
:020e6f00016a16
:020e7000016a15
:020e7100016a14
:020e7200016a13
:020e7300016b11
:020e7400016b10
:020e7500016b0f
:020e7600016b0e
:020e7700016b0d
:020e7800016b0c
:020e7900016b0b
:020e7a00016b0a
:020e7b00016b09
:020e7c00016b08
:020e7d00016c06
:020e7e00016c05
:020e7f00016c04
:020e8000016c03
:020e8100016c02
:020e8200016c01
:020e8300016c00
:020e8400016cff
:020e8500016cfe
:020e8600016cfd
:020e8700016dfb
:020e8800016dfa
:020e8900016df9
:020e8a00016df8
:020e8b00016df7
:020e8c00016df6
:020e8d00016df5
:020e8e00016df4
:020e8f00016df3
:020e9000016df2
:020e9100016ef0
:020e9200016eef
:020e9300016eee
:020e9400016eed
:020e9500016eec
:020e9600016eeb
:020e9700016eea
:020e9800016ee9
:020e9900016ee8
:020e9a00016ee7
:020e9b00016ee6
:020e9c00016fe4
:020e9d00016fe3
:020e9e00016fe2
:020e9f00016fe1
:020ea000016fe0
:020ea100016fdf
:020ea200016fde
:020ea300016fdd
:020ea400016fdc
:020ea500016fdb
:020ea6000170d9
:020ea7000170d8
:020ea8000170d7
:020ea9000170d6
:020eaa000170d5
:020eab000170d4
:020eac000170d3
:020ead000170d2
:020eae000170d1
:020eaf000170d0
:020eb0000171ce
:020eb1000171cd
:020eb2000171cc
:020eb3000171cb
:020eb4000171ca
:020eb5000171c9
:020eb6000171c8
:020eb7000171c7
:020eb8000171c6
:020eb9000171c5
:020eba000172c3
:020ebb000172c2
:020ebc000172c1
:020ebd000172c0
:020ebe000172bf
:020ebf000172be
:020ec0000172bd
:020ec1000172bc
:020ec2000172bb
:020ec3000172ba
:020ec4000173b8
:020ec5000173b7
:020ec6000173b6
:020ec7000173b5
:020ec8000173b4
:020ec9000173b3
:020eca000173b2
:020ecb000173b1
:020ecc000173b0
:020ecd000173af
:020ece000173ae
:020ecf000174ac
:020ed0000174ab
:020ed1000174aa
:020ed2000174a9
:020ed3000174a8
:020ed4000174a7
:020ed5000174a6
:020ed6000174a5
:020ed7000174a4
:020ed8000174a3
:020ed9000175a1
:020eda000175a0
:020edb0001759f
:020edc0001759e
:020edd0001759d
:020ede0001759c
:020edf0001759b
:020ee00001759a
:020ee100017599
:020ee200017598
:020ee300017696
:020ee400017695
:020ee500017694
:020ee600017693
:020ee700017692
:020ee800017691
:020ee900017690
:020eea0001768f
:020eeb0001768e
:020eec0001768d
:020eed0001778b
:020eee0001778a
:020eef00017789
:020ef000017788
:020ef100017787
:020ef200017786
:020ef300017785
:020ef400017784
:020ef500017783
:020ef600017782
:020ef700017781
:020ef80001787f
:020ef90001787e
:020efa0001787d
:020efb0001787c
:020efc0001787b
:020efd0001787a
:020efe00017879
:020eff00017878
:020f0000017876
:020f0100017875
:020f0200017973
:020f0300017972
:020f0400017971
:020f0500017970
:020f060001796f
:020f070001796e
:020f080001796d
:020f090001796c
:020f0a0001796b
:020f0b0001796a
:020f0c00017a68
:020f0d00017a67
:020f0e00017a66
:020f0f00017a65
:020f1000017a64
:020f1100017a63
:020f1200017a62
:020f1300017a61
:020f1400017a60
:020f1500017a5f
:020f1600017b5d
:020f1700017b5c
:020f1800017b5b
:020f1900017b5a
:020f1a00017b59
:020f1b00017b58
:020f1c00017b57
:020f1d00017b56
:020f1e00017b55
:020f1f00017b54
:020f2000017b53
:020f2100017c51
:020f2200017c50
:020f2300017c4f
:020f2400017c4e
:020f2500017c4d
:020f2600017c4c
:020f2700017c4b
:020f2800017c4a
:020f2900017c49
:020f2a00017c48
:020f2b00017d46
:020f2c00017d45
:020f2d00017d44
:020f2e00017d43
:020f2f00017d42
:020f3000017d41
:020f3100017d40
:020f3200017d3f
:020f3300017d3e
:020f3400017d3d
:020f3500017e3b
:020f3600017e3a
:020f3700017e39
:020f3800017e38
:020f3900017e37
:020f3a00017e36
:020f3b00017e35
:020f3c00017e34
:020f3d00017e33
:020f3e00017e32
:020f3f00017f30
:020f4000017f2f
:020f4100017f2e
:020f4200017f2d
:020f4300017f2c
:020f4400017f2b
:020f4500017f2a
:020f4600017f29
:020f4700017f28
:020f4800017f27
:020f4900018025
:020f4a00018024
:020f4b00018023
:020f4c00018022
:020f4d00018021
:020f4e00018020
:020f4f0001801f
:020f500001801e
:020f510001801d
:020f520001801c
:020f530001801b
:020f5400018119
:020f5500018118
:020f5600018117
:020f5700018116
:020f5800018115
:020f5900018114
:020f5a00018113
:020f5b00018112
:020f5c00018111
:020f5d00018110
:020f5e0001820e
:020f5f0001820d
:020f600001820c
:020f610001820b
:020f620001820a
:020f6300018209
:020f6400018208
:020f6500018207
:020f6600018206
:020f6700018205
:020f6800018303
:020f6900018302
:020f6a00018301
:020f6b00018300
:020f6c000183ff
:020f6d000183fe
:020f6e000183fd
:020f6f000183fc
:020f70000183fb
:020f71000183fa
:020f72000184f8
:020f73000184f7
:020f74000184f6
:020f75000184f5
:020f76000184f4
:020f77000184f3
:020f78000184f2
:020f79000184f1
:020f7a000184f0
:020f7b000184ef
:020f7c000184ee
:020f7d000185ec
:020f7e000185eb
:020f7f000185ea
:020f80000185e9
:020f81000185e8
:020f82000185e7
:020f83000185e6
:020f84000185e5
:020f85000185e4
:020f86000185e3
:020f87000186e1
:020f88000186e0
:020f89000186df
:020f8a000186de
:020f8b000186dd
:020f8c000186dc
:020f8d000186db
:020f8e000186da
:020f8f000186d9
:020f90000186d8
:020f91000187d6
:020f92000187d5
:020f93000187d4
:020f94000187d3
:020f95000187d2
:020f96000187d1
:020f97000187d0
:020f98000187cf
:020f99000187ce
:020f9a000187cd
:020f9b000188cb
:020f9c000188ca
:020f9d000188c9
:020f9e000188c8
:020f9f000188c7
