:020000000ffff0
:020001000fffef
:020002000fffee
:020003000fffed
:020004000fffec
:020005000fffeb
:020006000fffea
:020007000fffe9
:020008000fffe8
:020009000fffe7
:02000a000fffe6
:02000b000fffe5
:02000c000fffe4
:02000d000fffe3
:02000e000fffe2
:02000f000fffe1
:020010000fffe0
:020011000fffdf
:020012000fffde
:020013000fffdd
:020014000fffdc
:020015000fffdb
:020016000fffda
:020017000fffd9
:020018000fffd8
:020019000fffd7
:02001a000fffd6
:02001b000fffd5
:02001c000fffd4
:02001d000fffd3
:02001e000fffd2
:02001f000fffd1
:020020000fffd0
:020021000fffcf
:020022000fffce
:020023000fffcd
:020024000fffcc
:020025000fffcb
:020026000fffca
:020027000fffc9
:020028000fffc8
:020029000fffc7
:02002a000fffc6
:02002b000fffc5
:02002c000fffc4
:02002d000fffc3
:02002e000fffc2
:02002f000fffc1
:020030000fffc0
:020031000fffbf
:020032000fffbe
:020033000fffbd
:020034000fffbc
:020035000fffbb
:020036000fffba
:020037000fffb9
:020038000fffb8
:020039000fffb7
:02003a000fffb6
:02003b000fffb5
:02003c000fffb4
:02003d000fffb3
:02003e000fffb2
:02003f000fffb1
:020040000fffb0
:020041000fffaf
:020042000fffae
:020043000fffad
:020044000fffac
:020045000fffab
:020046000fffaa
:020047000fffa9
:020048000fffa8
:020049000fffa7
:02004a000fffa6
:02004b000fffa5
:02004c000fffa4
:02004d000fffa3
:02004e000fffa2
:02004f000fffa1
:020050000fffa0
:020051000fff9f
:020052000fff9e
:020053000fff9d
:020054000fff9c
:020055000fff9b
:020056000fff9a
:020057000fff99
:020058000fff98
:020059000fff97
:02005a000fff96
:02005b000fff95
:02005c000fff94
:02005d000fff93
:02005e000fff92
:02005f000fff91
:020060000fff90
:020061000fff8f
:020062000fff8e
:020063000fff8d
:020064000fff8c
:020065000fff8b
:020066000fff8a
:020067000fff89
:020068000fff88
:020069000fff87
:02006a000fff86
:02006b000fff85
:02006c000fff84
:02006d000fff83
:02006e000fff82
:02006f000fff81
:020070000fff80
:020071000fff7f
:020072000fff7e
:020073000fff7d
:020074000fff7c
:020075000fff7b
:020076000fff7a
:020077000fff79
:020078000fff78
:020079000fff77
:02007a000fff76
:02007b000fff75
:02007c000fff74
:02007d000fff73
:02007e000fff72
:02007f000fff71
:020080000fff70
:020081000fff6f
:020082000fff6e
:020083000fff6d
:020084000fff6c
:020085000fff6b
:020086000fff6a
:020087000fff69
:020088000fff68
:020089000fff67
:02008a000fff66
:02008b000fff65
:02008c000fff64
:02008d000fff63
:02008e000fff62
:02008f000fff61
:020090000fff60
:020091000fff5f
:020092000fff5e
:020093000fff5d
:020094000fff5c
:020095000fff5b
:020096000fff5a
:020097000fff59
:020098000fff58
:020099000fff57
:02009a000fff56
:02009b000fff55
:02009c000fff54
:02009d000fff53
:02009e000fff52
:02009f000fff51
:0200a0000fff50
:0200a1000fff4f
:0200a2000fff4e
:0200a3000fff4d
:0200a4000fff4c
:0200a5000fff4b
:0200a6000fff4a
:0200a7000fff49
:0200a8000fff48
:0200a9000fff47
:0200aa000fff46
:0200ab000fff45
:0200ac000fff44
:0200ad000fff43
:0200ae000fff42
:0200af000fff41
:0200b0000fff40
:0200b1000fff3f
:0200b2000fff3e
:0200b3000fff3d
:0200b4000fff3c
:0200b5000fff3b
:0200b6000fff3a
:0200b7000fff39
:0200b8000fff38
:0200b9000fff37
:0200ba000fff36
:0200bb000fff35
:0200bc000fff34
:0200bd000fff33
:0200be000fff32
:0200bf000fff31
:0200c0000fff30
:0200c1000fff2f
:0200c2000fff2e
:0200c3000fff2d
:0200c4000fff2c
:0200c5000fff2b
:0200c6000fff2a
:0200c7000fff29
:0200c8000fff28
:0200c9000fff27
:0200ca000fff26
:0200cb000fff25
:0200cc000fff24
:0200cd000fff23
:0200ce000fff22
:0200cf000fff21
:0200d0000fff20
:0200d1000fff1f
:0200d2000fff1e
:0200d3000fff1d
:0200d4000fff1c
:0200d5000fff1b
:0200d6000fff1a
:0200d7000fff19
:0200d8000fff18
:0200d9000fff17
:0200da000fff16
:0200db000fff15
:0200dc000fff14
:0200dd000fff13
:0200de000fff12
:0200df000fff11
:0200e0000fff10
:0200e1000fff0f
:0200e2000fff0e
:0200e3000fff0d
:0200e4000fff0c
:0200e5000fff0b
:0200e6000fff0a
:0200e7000fff09
:0200e8000fff08
:0200e9000fff07
:0200ea000fff06
:0200eb000fff05
:0200ec000fff04
:0200ed000fff03
:0200ee000fff02
:0200ef000fff01
:0200f0000fff00
:0200f1000fffff
:0200f2000ffffe
:0200f3000ffffd
:0200f4000ffffc
:0200f5000ffffb
:0200f6000ffffa
:0200f7000ffff9
:0200f8000ffff8
:0200f9000ffff7
:0200fa000ffff6
:0200fb000ffff5
:0200fc000ffff4
:0200fd000ffff3
:0200fe000ffff2
:0200ff000ffff1
:020100000fffef
:020101000fffee
:020102000fffed
:020103000fffec
:020104000fffeb
:020105000fffea
:020106000fffe9
:020107000fffe8
:020108000fffe7
:020109000fffe6
:02010a000fffe5
:02010b000fffe4
:02010c000fffe3
:02010d000fffe2
:02010e000fffe1
:02010f000fffe0
:020110000fffdf
:020111000fffde
:020112000fffdd
:020113000fffdc
:020114000fffdb
:020115000fffda
:020116000fffd9
:020117000fffd8
:020118000fffd7
:020119000fffd6
:02011a000fffd5
:02011b000fffd4
:02011c000fffd3
:02011d000fffd2
:02011e000fffd1
:02011f000fffd0
:020120000fffcf
:020121000fffce
:020122000fffcd
:020123000fffcc
:020124000fffcb
:020125000fffca
:020126000fffc9
:020127000fffc8
:020128000fffc7
:020129000fffc6
:02012a000fffc5
:02012b000fffc4
:02012c000fffc3
:02012d000fffc2
:02012e000fffc1
:02012f000fffc0
:020130000fffbf
:020131000fffbe
:020132000fffbd
:020133000fffbc
:020134000fffbb
:020135000fffba
:020136000fffb9
:020137000fffb8
:020138000fffb7
:020139000fffb6
:02013a000fffb5
:02013b000fffb4
:02013c000fffb3
:02013d000fffb2
:02013e000fffb1
:02013f000fffb0
:020140000fffaf
:020141000fffae
:020142000fffad
:020143000fffac
:020144000fffab
:020145000fffaa
:020146000fffa9
:020147000fffa8
:020148000fffa7
:020149000fffa6
:02014a000fffa5
:02014b000fffa4
:02014c000fffa3
:02014d000fffa2
:02014e000fffa1
:02014f000fffa0
:020150000fff9f
:020151000fff9e
:020152000fff9d
:020153000fff9c
:020154000fff9b
:020155000fff9a
:020156000fff99
:020157000fff98
:020158000fff97
:020159000fff96
:02015a000fff95
:02015b000fff94
:02015c000fff93
:02015d000fff92
:02015e000fff91
:02015f000fff90
:020160000fff8f
:020161000fff8e
:020162000fff8d
:020163000fff8c
:020164000fff8b
:020165000fff8a
:020166000fff89
:020167000fff88
:020168000fff87
:020169000fff86
:02016a000fff85
:02016b000fff84
:02016c000fff83
:02016d000fff82
:02016e000fff81
:02016f000fff80
:020170000fff7f
:020171000fff7e
:020172000fff7d
:020173000fff7c
:020174000fff7b
:020175000fff7a
:020176000fff79
:020177000fff78
:020178000fff77
:020179000fff76
:02017a000fff75
:02017b000fff74
:02017c000fff73
:02017d000fff72
:02017e000fff71
:02017f000fff70
:020180000fff6f
:020181000fff6e
:020182000fff6d
:020183000fff6c
:020184000fff6b
:020185000fff6a
:020186000fff69
:020187000fff68
:020188000fff67
:020189000fff66
:02018a000fff65
:02018b000fff64
:02018c000fff63
:02018d000fff62
:02018e000fff61
:02018f000fff60
:020190000fff5f
:020191000fff5e
:020192000fff5d
:020193000fff5c
:020194000fff5b
:020195000fff5a
:020196000fff59
:020197000fff58
:020198000fff57
:020199000fff56
:02019a000fff55
:02019b000fff54
:02019c000fff53
:02019d000fff52
:02019e000fff51
:02019f000fff50
:0201a0000fff4f
:0201a1000fff4e
:0201a2000fff4d
:0201a3000fff4c
:0201a4000fff4b
:0201a5000fff4a
:0201a6000fff49
:0201a7000fff48
:0201a8000fff47
:0201a9000fff46
:0201aa000fff45
:0201ab000fff44
:0201ac000fff43
:0201ad000fff42
:0201ae000fff41
:0201af000fff40
:0201b0000fff3f
:0201b1000fff3e
:0201b2000fff3d
:0201b3000fff3c
:0201b4000fff3b
:0201b5000fff3a
:0201b6000fff39
:0201b7000fff38
:0201b8000fff37
:0201b9000fff36
:0201ba000fff35
:0201bb000fff34
:0201bc000fff33
:0201bd000fff32
:0201be000fff31
:0201bf000fff30
:0201c0000fff2f
:0201c1000fff2e
:0201c2000fff2d
:0201c3000fff2c
:0201c4000fff2b
:0201c5000fff2a
:0201c6000fff29
:0201c7000fff28
:0201c8000fff27
:0201c9000fff26
:0201ca000fff25
:0201cb000fff24
:0201cc000fff23
:0201cd000fff22
:0201ce000fff21
:0201cf000fff20
:0201d0000fff1f
:0201d1000fff1e
:0201d2000fff1d
:0201d3000fff1c
:0201d4000fff1b
:0201d5000fff1a
:0201d6000fff19
:0201d7000fff18
:0201d8000fff17
:0201d9000fff16
:0201da000fff15
:0201db000fff14
:0201dc000fff13
:0201dd000fff12
:0201de000fff11
:0201df000fff10
:0201e0000fff0f
:0201e1000fff0e
:0201e2000fff0d
:0201e3000fff0c
:0201e4000fff0b
:0201e5000fff0a
:0201e6000fff09
:0201e7000fff08
:0201e8000fff07
:0201e9000fff06
:0201ea000fff05
:0201eb000fff04
:0201ec000fff03
:0201ed000fff02
:0201ee000fff01
:0201ef000fff00
:0201f0000fffff
:0201f1000ffffe
:0201f2000ffffd
:0201f3000ffffc
:0201f4000ffffb
:0201f5000ffffa
:0201f6000ffff9
:0201f7000ffff8
:0201f8000ffff7
:0201f9000ffff6
:0201fa000ffff5
:0201fb000ffff4
:0201fc000ffff3
:0201fd000ffff2
:0201fe000ffff1
:0201ff000ffff0
:020200000fffee
:020201000fffed
:020202000fffec
:020203000fffeb
:020204000fffea
:020205000fffe9
:020206000fffe8
:020207000fffe7
:020208000fffe6
:020209000fffe5
:02020a000fffe4
:02020b000fffe3
:02020c000fffe2
:02020d000fffe1
:02020e000fffe0
:02020f000fffdf
:020210000fffde
:020211000fffdd
:020212000fffdc
:020213000fffdb
:020214000fffda
:020215000fffd9
:020216000fffd8
:020217000fffd7
:020218000fffd6
:020219000fffd5
:02021a000fffd4
:02021b000fffd3
:02021c000fffd2
:02021d000fffd1
:02021e000fffd0
:02021f000fffcf
:020220000fffce
:020221000fffcd
:020222000fffcc
:020223000fffcb
:020224000fffca
:020225000fffc9
:020226000fffc8
:020227000fffc7
:020228000fffc6
:020229000fffc5
:02022a000fffc4
:02022b000fffc3
:02022c000fffc2
:02022d000fffc1
:02022e000fffc0
:02022f000fffbf
:020230000fffbe
:020231000fffbd
:020232000fffbc
:020233000fffbb
:020234000fffba
:020235000fffb9
:020236000fffb8
:020237000fffb7
:020238000fffb6
:020239000fffb5
:02023a000fffb4
:02023b000fffb3
:02023c000fffb2
:02023d000fffb1
:02023e000fffb0
:02023f000fffaf
:020240000fffae
:020241000fffad
:020242000fffac
:020243000fffab
:020244000fffaa
:020245000fffa9
:020246000fffa8
:020247000fffa7
:020248000fffa6
:020249000fffa5
:02024a000fffa4
:02024b000fffa3
:02024c000fffa2
:02024d000fffa1
:02024e000fffa0
:02024f000fff9f
:020250000fff9e
:020251000fff9d
:020252000fff9c
:020253000fff9b
:020254000fff9a
:020255000fff99
:020256000fff98
:020257000fff97
:020258000fff96
:020259000fff95
:02025a000fff94
:02025b000fff93
:02025c000fff92
:02025d000fff91
:02025e000fff90
:02025f000fff8f
:020260000fff8e
:020261000fff8d
:020262000fff8c
:020263000fff8b
:020264000fff8a
:020265000fff89
:020266000fff88
:020267000fff87
:020268000fff86
:020269000fff85
:02026a000fff84
:02026b000fff83
:02026c000fff82
:02026d000fff81
:02026e000fff80
:02026f000fff7f
:020270000fff7e
:020271000fff7d
:020272000fff7c
:020273000fff7b
:020274000fff7a
:020275000fff79
:020276000fff78
:020277000fff77
:020278000fff76
:020279000fff75
:02027a000fff74
:02027b000fff73
:02027c000fff72
:02027d000fff71
:02027e000fff70
:02027f000fff6f
:020280000fff6e
:020281000fff6d
:020282000fff6c
:020283000fff6b
:020284000fff6a
:020285000fff69
:020286000fff68
:020287000fff67
:020288000fff66
:020289000fff65
:02028a000fff64
:02028b000fff63
:02028c000ffe63
:02028d000ffe62
:02028e000ffe61
:02028f000ffe60
:020290000ffe5f
:020291000ffe5e
:020292000ffe5d
:020293000ffe5c
:020294000ffe5b
:020295000ffe5a
:020296000ffe59
:020297000ffe58
:020298000ffe57
:020299000ffe56
:02029a000ffe55
:02029b000ffe54
:02029c000ffe53
:02029d000ffe52
:02029e000ffe51
:02029f000ffe50
:0202a0000ffe4f
:0202a1000ffe4e
:0202a2000ffe4d
:0202a3000ffe4c
:0202a4000ffe4b
:0202a5000ffe4a
:0202a6000ffe49
:0202a7000ffe48
:0202a8000ffe47
:0202a9000ffe46
:0202aa000ffe45
:0202ab000ffe44
:0202ac000ffe43
:0202ad000ffe42
:0202ae000ffe41
:0202af000ffe40
:0202b0000ffe3f
:0202b1000ffe3e
:0202b2000ffe3d
:0202b3000ffe3c
:0202b4000ffe3b
:0202b5000ffe3a
:0202b6000ffe39
:0202b7000ffe38
:0202b8000ffe37
:0202b9000ffe36
:0202ba000ffe35
:0202bb000ffe34
:0202bc000ffe33
:0202bd000ffe32
:0202be000ffe31
:0202bf000ffe30
:0202c0000ffe2f
:0202c1000ffe2e
:0202c2000ffe2d
:0202c3000ffe2c
:0202c4000ffe2b
:0202c5000ffe2a
:0202c6000ffe29
:0202c7000ffe28
:0202c8000ffe27
:0202c9000ffe26
:0202ca000ffe25
:0202cb000ffe24
:0202cc000ffe23
:0202cd000ffe22
:0202ce000ffe21
:0202cf000ffe20
:0202d0000ffe1f
:0202d1000ffe1e
:0202d2000ffe1d
:0202d3000ffe1c
:0202d4000ffe1b
:0202d5000ffe1a
:0202d6000ffe19
:0202d7000ffe18
:0202d8000ffe17
:0202d9000ffe16
:0202da000ffe15
:0202db000ffe14
:0202dc000ffe13
:0202dd000ffe12
:0202de000ffe11
:0202df000ffe10
:0202e0000ffe0f
:0202e1000ffe0e
:0202e2000ffe0d
:0202e3000ffe0c
:0202e4000ffe0b
:0202e5000ffe0a
:0202e6000ffe09
:0202e7000ffe08
:0202e8000ffe07
:0202e9000ffe06
:0202ea000ffe05
:0202eb000ffe04
:0202ec000ffe03
:0202ed000ffe02
:0202ee000ffe01
:0202ef000ffe00
:0202f0000ffeff
:0202f1000ffefe
:0202f2000ffefd
:0202f3000ffefc
:0202f4000ffefb
:0202f5000ffefa
:0202f6000ffef9
:0202f7000ffef8
:0202f8000ffef7
:0202f9000ffef6
:0202fa000ffef5
:0202fb000ffef4
:0202fc000ffef3
:0202fd000ffef2
:0202fe000ffef1
:0202ff000ffef0
:020300000ffeee
:020301000ffeed
:020302000ffeec
:020303000ffeeb
:020304000ffeea
:020305000ffee9
:020306000ffee8
:020307000ffee7
:020308000ffee6
:020309000ffee5
:02030a000ffee4
:02030b000ffee3
:02030c000ffee2
:02030d000ffee1
:02030e000ffee0
:02030f000ffedf
:020310000ffede
:020311000ffedd
:020312000ffedc
:020313000ffedb
:020314000ffeda
:020315000ffed9
:020316000ffed8
:020317000ffed7
:020318000ffed6
:020319000ffed5
:02031a000ffed4
:02031b000ffed3
:02031c000ffed2
:02031d000ffed1
:02031e000ffed0
:02031f000ffecf
:020320000ffece
:020321000ffecd
:020322000ffecc
:020323000ffecb
:020324000ffeca
:020325000ffec9
:020326000ffec8
:020327000ffec7
:020328000ffec6
:020329000ffec5
:02032a000ffec4
:02032b000ffec3
:02032c000ffec2
:02032d000ffec1
:02032e000ffec0
:02032f000ffebf
:020330000ffebe
:020331000ffebd
:020332000ffebc
:020333000ffebb
:020334000ffeba
:020335000ffeb9
:020336000ffeb8
:020337000ffeb7
:020338000ffeb6
:020339000ffeb5
:02033a000ffeb4
:02033b000ffeb3
:02033c000ffeb2
:02033d000ffeb1
:02033e000ffeb0
:02033f000ffeaf
:020340000ffeae
:020341000ffead
:020342000ffeac
:020343000ffeab
:020344000ffeaa
:020345000ffea9
:020346000ffea8
:020347000ffea7
:020348000ffea6
:020349000ffea5
:02034a000ffea4
:02034b000ffea3
:02034c000ffea2
:02034d000ffea1
:02034e000ffea0
:02034f000ffe9f
:020350000ffe9e
:020351000ffe9d
:020352000ffe9c
:020353000ffe9b
:020354000ffe9a
:020355000ffe99
:020356000ffe98
:020357000ffe97
:020358000ffe96
:020359000ffe95
:02035a000ffe94
:02035b000ffe93
:02035c000ffe92
:02035d000ffe91
:02035e000ffe90
:02035f000ffe8f
:020360000ffe8e
:020361000ffe8d
:020362000ffe8c
:020363000ffe8b
:020364000ffe8a
:020365000ffe89
:020366000ffe88
:020367000ffe87
:020368000ffe86
:020369000ffe85
:02036a000ffe84
:02036b000ffe83
:02036c000ffe82
:02036d000ffe81
:02036e000ffe80
:02036f000ffe7f
:020370000ffe7e
:020371000ffe7d
:020372000ffe7c
:020373000ffe7b
:020374000ffe7a
:020375000ffe79
:020376000ffe78
:020377000ffe77
:020378000ffe76
:020379000ffe75
:02037a000ffe74
:02037b000ffe73
:02037c000ffe72
:02037d000ffe71
:02037e000ffe70
:02037f000ffe6f
:020380000ffe6e
:020381000ffe6d
:020382000ffe6c
:020383000ffe6b
:020384000ffe6a
:020385000ffe69
:020386000ffe68
:020387000ffe67
:020388000ffe66
:020389000ffe65
:02038a000ffe64
:02038b000ffe63
:02038c000ffe62
:02038d000ffe61
:02038e000ffe60
:02038f000ffe5f
:020390000ffe5e
:020391000ffe5d
:020392000ffe5c
:020393000ffe5b
:020394000ffe5a
:020395000ffe59
:020396000ffe58
:020397000ffe57
:020398000ffe56
:020399000ffe55
:02039a000ffe54
:02039b000ffe53
:02039c000ffe52
:02039d000ffe51
:02039e000ffe50
:02039f000ffe4f
:0203a0000ffe4e
:0203a1000ffe4d
:0203a2000ffe4c
:0203a3000ffe4b
:0203a4000ffe4a
:0203a5000ffe49
:0203a6000ffe48
:0203a7000ffe47
:0203a8000ffe46
:0203a9000ffe45
:0203aa000ffe44
:0203ab000ffe43
:0203ac000ffe42
:0203ad000ffe41
:0203ae000ffe40
:0203af000ffe3f
:0203b0000ffe3e
:0203b1000ffe3d
:0203b2000ffe3c
:0203b3000ffe3b
:0203b4000ffe3a
:0203b5000ffe39
:0203b6000ffe38
:0203b7000ffe37
:0203b8000ffe36
:0203b9000ffe35
:0203ba000ffe34
:0203bb000ffe33
:0203bc000ffe32
:0203bd000ffe31
:0203be000ffe30
:0203bf000ffe2f
:0203c0000ffe2e
:0203c1000ffe2d
:0203c2000ffe2c
:0203c3000ffe2b
:0203c4000ffe2a
:0203c5000ffe29
:0203c6000ffe28
:0203c7000ffe27
:0203c8000ffe26
:0203c9000ffe25
:0203ca000ffe24
:0203cb000ffe23
:0203cc000ffe22
:0203cd000ffe21
:0203ce000ffe20
:0203cf000ffe1f
:0203d0000ffe1e
:0203d1000ffe1d
:0203d2000ffe1c
:0203d3000ffe1b
:0203d4000ffe1a
:0203d5000ffe19
:0203d6000ffe18
:0203d7000ffe17
:0203d8000ffe16
:0203d9000ffe15
:0203da000ffe14
:0203db000ffe13
:0203dc000ffe12
:0203dd000ffe11
:0203de000ffe10
:0203df000ffe0f
:0203e0000ffe0e
:0203e1000ffe0d
:0203e2000ffe0c
:0203e3000ffe0b
:0203e4000ffe0a
:0203e5000ffe09
:0203e6000ffe08
:0203e7000ffe07
:0203e8000ffe06
:0203e9000ffe05
:0203ea000ffe04
:0203eb000ffe03
:0203ec000ffe02
:0203ed000ffe01
:0203ee000ffe00
:0203ef000ffeff
:0203f0000ffefe
:0203f1000ffefd
:0203f2000ffefc
:0203f3000ffefb
:0203f4000ffefa
:0203f5000ffef9
:0203f6000ffef8
:0203f7000ffef7
:0203f8000ffef6
:0203f9000ffef5
:0203fa000ffef4
:0203fb000ffef3
:0203fc000ffef2
:0203fd000ffef1
:0203fe000ffef0
:0203ff000ffeef
:020400000ffeed
:020401000ffeec
:020402000ffeeb
:020403000ffeea
:020404000ffee9
:020405000ffee8
:020406000ffee7
:020407000ffee6
:020408000ffee5
:020409000ffee4
:02040a000ffee3
:02040b000ffee2
:02040c000ffee1
:02040d000ffee0
:02040e000ffedf
:02040f000ffede
:020410000ffedd
:020411000ffedc
:020412000ffedb
:020413000ffeda
:020414000ffed9
:020415000ffed8
:020416000ffed7
:020417000ffed6
:020418000ffed5
:020419000ffed4
:02041a000ffed3
:02041b000ffed2
:02041c000ffed1
:02041d000ffed0
:02041e000ffecf
:02041f000ffece
:020420000ffecd
:020421000ffecc
:020422000ffecb
:020423000ffeca
:020424000ffec9
:020425000ffec8
:020426000ffec7
:020427000ffec6
:020428000ffec5
:020429000ffec4
:02042a000ffec3
:02042b000ffec2
:02042c000ffec1
:02042d000ffec0
:02042e000ffebf
:02042f000ffebe
:020430000ffebd
:020431000ffebc
:020432000ffebb
:020433000ffeba
:020434000ffeb9
:020435000ffeb8
:020436000ffeb7
:020437000ffeb6
:020438000ffeb5
:020439000ffeb4
:02043a000ffeb3
:02043b000ffeb2
:02043c000ffeb1
:02043d000ffeb0
:02043e000ffeaf
:02043f000ffeae
:020440000ffead
:020441000ffeac
:020442000ffeab
:020443000ffeaa
:020444000ffea9
:020445000ffea8
:020446000ffea7
:020447000ffea6
:020448000ffea5
:020449000ffea4
:02044a000ffea3
:02044b000ffea2
:02044c000ffea1
:02044d000ffea0
:02044e000ffe9f
:02044f000ffe9e
:020450000ffe9d
:020451000ffe9c
:020452000ffe9b
:020453000ffe9a
:020454000ffe99
:020455000ffe98
:020456000ffe97
:020457000ffe96
:020458000ffe95
:020459000ffe94
:02045a000ffe93
:02045b000ffe92
:02045c000ffe91
:02045d000ffe90
:02045e000ffe8f
:02045f000ffe8e
:020460000ffe8d
:020461000ffe8c
:020462000ffe8b
:020463000ffe8a
:020464000ffe89
:020465000ffe88
:020466000ffe87
:020467000ffe86
:020468000ffe85
:020469000ffe84
:02046a000ffd84
:02046b000ffd83
:02046c000ffd82
:02046d000ffd81
:02046e000ffd80
:02046f000ffd7f
:020470000ffd7e
:020471000ffd7d
:020472000ffd7c
:020473000ffd7b
:020474000ffd7a
:020475000ffd79
:020476000ffd78
:020477000ffd77
:020478000ffd76
:020479000ffd75
:02047a000ffd74
:02047b000ffd73
:02047c000ffd72
:02047d000ffd71
:02047e000ffd70
:02047f000ffd6f
:020480000ffd6e
:020481000ffd6d
:020482000ffd6c
:020483000ffd6b
:020484000ffd6a
:020485000ffd69
:020486000ffd68
:020487000ffd67
:020488000ffd66
:020489000ffd65
:02048a000ffd64
:02048b000ffd63
:02048c000ffd62
:02048d000ffd61
:02048e000ffd60
:02048f000ffd5f
:020490000ffd5e
:020491000ffd5d
:020492000ffd5c
:020493000ffd5b
:020494000ffd5a
:020495000ffd59
:020496000ffd58
:020497000ffd57
:020498000ffd56
:020499000ffd55
:02049a000ffd54
:02049b000ffd53
:02049c000ffd52
:02049d000ffd51
:02049e000ffd50
:02049f000ffd4f
:0204a0000ffd4e
:0204a1000ffd4d
:0204a2000ffd4c
:0204a3000ffd4b
:0204a4000ffd4a
:0204a5000ffd49
:0204a6000ffd48
:0204a7000ffd47
:0204a8000ffd46
:0204a9000ffd45
:0204aa000ffd44
:0204ab000ffd43
:0204ac000ffd42
:0204ad000ffd41
:0204ae000ffd40
:0204af000ffd3f
:0204b0000ffd3e
:0204b1000ffd3d
:0204b2000ffd3c
:0204b3000ffd3b
:0204b4000ffd3a
:0204b5000ffd39
:0204b6000ffd38
:0204b7000ffd37
:0204b8000ffd36
:0204b9000ffd35
:0204ba000ffd34
:0204bb000ffd33
:0204bc000ffd32
:0204bd000ffd31
:0204be000ffd30
:0204bf000ffd2f
:0204c0000ffd2e
:0204c1000ffd2d
:0204c2000ffd2c
:0204c3000ffd2b
:0204c4000ffd2a
:0204c5000ffd29
:0204c6000ffd28
:0204c7000ffd27
:0204c8000ffd26
:0204c9000ffd25
:0204ca000ffd24
:0204cb000ffd23
:0204cc000ffd22
:0204cd000ffd21
:0204ce000ffd20
:0204cf000ffd1f
:0204d0000ffd1e
:0204d1000ffd1d
:0204d2000ffd1c
:0204d3000ffd1b
:0204d4000ffd1a
:0204d5000ffd19
:0204d6000ffd18
:0204d7000ffd17
:0204d8000ffd16
:0204d9000ffd15
:0204da000ffd14
:0204db000ffd13
:0204dc000ffd12
:0204dd000ffd11
:0204de000ffd10
:0204df000ffd0f
:0204e0000ffd0e
:0204e1000ffd0d
:0204e2000ffd0c
:0204e3000ffd0b
:0204e4000ffd0a
:0204e5000ffd09
:0204e6000ffd08
:0204e7000ffd07
:0204e8000ffd06
:0204e9000ffd05
:0204ea000ffd04
:0204eb000ffd03
:0204ec000ffd02
:0204ed000ffd01
:0204ee000ffd00
:0204ef000ffdff
:0204f0000ffdfe
:0204f1000ffdfd
:0204f2000ffdfc
:0204f3000ffdfb
:0204f4000ffdfa
:0204f5000ffdf9
:0204f6000ffdf8
:0204f7000ffdf7
:0204f8000ffdf6
:0204f9000ffdf5
:0204fa000ffdf4
:0204fb000ffdf3
:0204fc000ffdf2
:0204fd000ffdf1
:0204fe000ffdf0
:0204ff000ffdef
:020500000ffded
:020501000ffdec
:020502000ffdeb
:020503000ffdea
:020504000ffde9
:020505000ffde8
:020506000ffde7
:020507000ffde6
:020508000ffde5
:020509000ffde4
:02050a000ffde3
:02050b000ffde2
:02050c000ffde1
:02050d000ffde0
:02050e000ffddf
:02050f000ffdde
:020510000ffddd
:020511000ffddc
:020512000ffddb
:020513000ffdda
:020514000ffdd9
:020515000ffdd8
:020516000ffdd7
:020517000ffdd6
:020518000ffdd5
:020519000ffdd4
:02051a000ffdd3
:02051b000ffdd2
:02051c000ffdd1
:02051d000ffdd0
:02051e000ffdcf
:02051f000ffdce
:020520000ffdcd
:020521000ffdcc
:020522000ffdcb
:020523000ffdca
:020524000ffdc9
:020525000ffdc8
:020526000ffdc7
:020527000ffdc6
:020528000ffdc5
:020529000ffdc4
:02052a000ffdc3
:02052b000ffdc2
:02052c000ffdc1
:02052d000ffdc0
:02052e000ffdbf
:02052f000ffdbe
:020530000ffdbd
:020531000ffdbc
:020532000ffdbb
:020533000ffdba
:020534000ffdb9
:020535000ffdb8
:020536000ffdb7
:020537000ffdb6
:020538000ffdb5
:020539000ffdb4
:02053a000ffdb3
:02053b000ffdb2
:02053c000ffdb1
:02053d000ffdb0
:02053e000ffdaf
:02053f000ffdae
:020540000ffdad
:020541000ffdac
:020542000ffdab
:020543000ffdaa
:020544000ffda9
:020545000ffda8
:020546000ffda7
:020547000ffda6
:020548000ffda5
:020549000ffda4
:02054a000ffda3
:02054b000ffda2
:02054c000ffda1
:02054d000ffda0
:02054e000ffd9f
:02054f000ffd9e
:020550000ffd9d
:020551000ffd9c
:020552000ffd9b
:020553000ffd9a
:020554000ffd99
:020555000ffd98
:020556000ffd97
:020557000ffd96
:020558000ffd95
:020559000ffd94
:02055a000ffd93
:02055b000ffd92
:02055c000ffd91
:02055d000ffd90
:02055e000ffd8f
:02055f000ffd8e
:020560000ffd8d
:020561000ffd8c
:020562000ffd8b
:020563000ffd8a
:020564000ffd89
:020565000ffd88
:020566000ffd87
:020567000ffd86
:020568000ffd85
:020569000ffd84
:02056a000ffd83
:02056b000ffd82
:02056c000ffd81
:02056d000ffd80
:02056e000ffd7f
:02056f000ffd7e
:020570000ffd7d
:020571000ffd7c
:020572000ffd7b
:020573000ffd7a
:020574000ffd79
:020575000ffd78
:020576000ffd77
:020577000ffd76
:020578000ffd75
:020579000ffd74
:02057a000ffd73
:02057b000ffd72
:02057c000ffd71
:02057d000ffd70
:02057e000ffd6f
:02057f000ffd6e
:020580000ffd6d
:020581000ffd6c
:020582000ffd6b
:020583000ffd6a
:020584000ffd69
:020585000ffd68
:020586000ffd67
:020587000ffd66
:020588000ffd65
:020589000ffd64
:02058a000ffd63
:02058b000ffd62
:02058c000ffd61
:02058d000ffd60
:02058e000ffd5f
:02058f000ffd5e
:020590000ffd5d
:020591000ffd5c
:020592000ffd5b
:020593000ffd5a
:020594000ffd59
:020595000ffd58
:020596000ffd57
:020597000ffd56
:020598000ffd55
:020599000ffd54
:02059a000ffd53
:02059b000ffd52
:02059c000ffd51
:02059d000ffd50
:02059e000ffd4f
:02059f000ffd4e
:0205a0000ffd4d
:0205a1000ffd4c
:0205a2000ffd4b
:0205a3000ffd4a
:0205a4000ffd49
:0205a5000ffd48
:0205a6000ffd47
:0205a7000ffd46
:0205a8000ffd45
:0205a9000ffd44
:0205aa000ffd43
:0205ab000ffd42
:0205ac000ffd41
:0205ad000ffd40
:0205ae000ffd3f
:0205af000ffd3e
:0205b0000ffd3d
:0205b1000ffd3c
:0205b2000ffc3c
:0205b3000ffc3b
:0205b4000ffc3a
:0205b5000ffc39
:0205b6000ffc38
:0205b7000ffc37
:0205b8000ffc36
:0205b9000ffc35
:0205ba000ffc34
:0205bb000ffc33
:0205bc000ffc32
:0205bd000ffc31
:0205be000ffc30
:0205bf000ffc2f
:0205c0000ffc2e
:0205c1000ffc2d
:0205c2000ffc2c
:0205c3000ffc2b
:0205c4000ffc2a
:0205c5000ffc29
:0205c6000ffc28
:0205c7000ffc27
:0205c8000ffc26
:0205c9000ffc25
:0205ca000ffc24
:0205cb000ffc23
:0205cc000ffc22
:0205cd000ffc21
:0205ce000ffc20
:0205cf000ffc1f
:0205d0000ffc1e
:0205d1000ffc1d
:0205d2000ffc1c
:0205d3000ffc1b
:0205d4000ffc1a
:0205d5000ffc19
:0205d6000ffc18
:0205d7000ffc17
:0205d8000ffc16
:0205d9000ffc15
:0205da000ffc14
:0205db000ffc13
:0205dc000ffc12
:0205dd000ffc11
:0205de000ffc10
:0205df000ffc0f
:0205e0000ffc0e
:0205e1000ffc0d
:0205e2000ffc0c
:0205e3000ffc0b
:0205e4000ffc0a
:0205e5000ffc09
:0205e6000ffc08
:0205e7000ffc07
:0205e8000ffc06
:0205e9000ffc05
:0205ea000ffc04
:0205eb000ffc03
:0205ec000ffc02
:0205ed000ffc01
:0205ee000ffc00
:0205ef000ffcff
:0205f0000ffcfe
:0205f1000ffcfd
:0205f2000ffcfc
:0205f3000ffcfb
:0205f4000ffcfa
:0205f5000ffcf9
:0205f6000ffcf8
:0205f7000ffcf7
:0205f8000ffcf6
:0205f9000ffcf5
:0205fa000ffcf4
:0205fb000ffcf3
:0205fc000ffcf2
:0205fd000ffcf1
:0205fe000ffcf0
:0205ff000ffcef
:020600000ffced
:020601000ffcec
:020602000ffceb
:020603000ffcea
:020604000ffce9
:020605000ffce8
:020606000ffce7
:020607000ffce6
:020608000ffce5
:020609000ffce4
:02060a000ffce3
:02060b000ffce2
:02060c000ffce1
:02060d000ffce0
:02060e000ffcdf
:02060f000ffcde
:020610000ffcdd
:020611000ffcdc
:020612000ffcdb
:020613000ffcda
:020614000ffcd9
:020615000ffcd8
:020616000ffcd7
:020617000ffcd6
:020618000ffcd5
:020619000ffcd4
:02061a000ffcd3
:02061b000ffcd2
:02061c000ffcd1
:02061d000ffcd0
:02061e000ffccf
:02061f000ffcce
:020620000ffccd
:020621000ffccc
:020622000ffccb
:020623000ffcca
:020624000ffcc9
:020625000ffcc8
:020626000ffcc7
:020627000ffcc6
:020628000ffcc5
:020629000ffcc4
:02062a000ffcc3
:02062b000ffcc2
:02062c000ffcc1
:02062d000ffcc0
:02062e000ffcbf
:02062f000ffcbe
:020630000ffcbd
:020631000ffcbc
:020632000ffcbb
:020633000ffcba
:020634000ffcb9
:020635000ffcb8
:020636000ffcb7
:020637000ffcb6
:020638000ffcb5
:020639000ffcb4
:02063a000ffcb3
:02063b000ffcb2
:02063c000ffcb1
:02063d000ffcb0
:02063e000ffcaf
:02063f000ffcae
:020640000ffcad
:020641000ffcac
:020642000ffcab
:020643000ffcaa
:020644000ffca9
:020645000ffca8
:020646000ffca7
:020647000ffca6
:020648000ffca5
:020649000ffca4
:02064a000ffca3
:02064b000ffca2
:02064c000ffca1
:02064d000ffca0
:02064e000ffc9f
:02064f000ffc9e
:020650000ffc9d
:020651000ffc9c
:020652000ffc9b
:020653000ffc9a
:020654000ffc99
:020655000ffc98
:020656000ffc97
:020657000ffc96
:020658000ffc95
:020659000ffc94
:02065a000ffc93
:02065b000ffc92
:02065c000ffc91
:02065d000ffc90
:02065e000ffc8f
:02065f000ffc8e
:020660000ffc8d
:020661000ffc8c
:020662000ffc8b
:020663000ffc8a
:020664000ffc89
:020665000ffc88
:020666000ffc87
:020667000ffc86
:020668000ffc85
:020669000ffc84
:02066a000ffc83
:02066b000ffc82
:02066c000ffc81
:02066d000ffc80
:02066e000ffc7f
:02066f000ffc7e
:020670000ffc7d
:020671000ffc7c
:020672000ffc7b
:020673000ffc7a
:020674000ffc79
:020675000ffc78
:020676000ffc77
:020677000ffc76
:020678000ffc75
:020679000ffc74
:02067a000ffc73
:02067b000ffc72
:02067c000ffc71
:02067d000ffc70
:02067e000ffc6f
:02067f000ffc6e
:020680000ffc6d
:020681000ffc6c
:020682000ffc6b
:020683000ffc6a
:020684000ffc69
:020685000ffc68
:020686000ffc67
:020687000ffc66
:020688000ffc65
:020689000ffc64
:02068a000ffc63
:02068b000ffc62
:02068c000ffc61
:02068d000ffc60
:02068e000ffc5f
:02068f000ffc5e
:020690000ffc5d
:020691000ffc5c
:020692000ffc5b
:020693000ffc5a
:020694000ffc59
:020695000ffc58
:020696000ffc57
:020697000ffc56
:020698000ffc55
:020699000ffc54
:02069a000ffc53
:02069b000ffc52
:02069c000ffc51
:02069d000ffc50
:02069e000ffc4f
:02069f000ffc4e
:0206a0000ffc4d
:0206a1000ffc4c
:0206a2000ffc4b
:0206a3000ffc4a
:0206a4000ffc49
:0206a5000ffc48
:0206a6000ffc47
:0206a7000ffc46
:0206a8000ffc45
:0206a9000ffc44
:0206aa000ffc43
:0206ab000ffc42
:0206ac000ffc41
:0206ad000ffc40
:0206ae000ffc3f
:0206af000ffc3e
:0206b0000ffc3d
:0206b1000ffc3c
:0206b2000ffc3b
:0206b3000ffc3a
:0206b4000ffc39
:0206b5000ffc38
:0206b6000ffc37
:0206b7000ffc36
:0206b8000ffc35
:0206b9000ffc34
:0206ba000ffc33
:0206bb000ffc32
:0206bc000ffc31
:0206bd000ffc30
:0206be000ffb30
:0206bf000ffb2f
:0206c0000ffb2e
:0206c1000ffb2d
:0206c2000ffb2c
:0206c3000ffb2b
:0206c4000ffb2a
:0206c5000ffb29
:0206c6000ffb28
:0206c7000ffb27
:0206c8000ffb26
:0206c9000ffb25
:0206ca000ffb24
:0206cb000ffb23
:0206cc000ffb22
:0206cd000ffb21
:0206ce000ffb20
:0206cf000ffb1f
:0206d0000ffb1e
:0206d1000ffb1d
:0206d2000ffb1c
:0206d3000ffb1b
:0206d4000ffb1a
:0206d5000ffb19
:0206d6000ffb18
:0206d7000ffb17
:0206d8000ffb16
:0206d9000ffb15
:0206da000ffb14
:0206db000ffb13
:0206dc000ffb12
:0206dd000ffb11
:0206de000ffb10
:0206df000ffb0f
:0206e0000ffb0e
:0206e1000ffb0d
:0206e2000ffb0c
:0206e3000ffb0b
:0206e4000ffb0a
:0206e5000ffb09
:0206e6000ffb08
:0206e7000ffb07
:0206e8000ffb06
:0206e9000ffb05
:0206ea000ffb04
:0206eb000ffb03
:0206ec000ffb02
:0206ed000ffb01
:0206ee000ffb00
:0206ef000ffbff
:0206f0000ffbfe
:0206f1000ffbfd
:0206f2000ffbfc
:0206f3000ffbfb
:0206f4000ffbfa
:0206f5000ffbf9
:0206f6000ffbf8
:0206f7000ffbf7
:0206f8000ffbf6
:0206f9000ffbf5
:0206fa000ffbf4
:0206fb000ffbf3
:0206fc000ffbf2
:0206fd000ffbf1
:0206fe000ffbf0
:0206ff000ffbef
:020700000ffbed
:020701000ffbec
:020702000ffbeb
:020703000ffbea
:020704000ffbe9
:020705000ffbe8
:020706000ffbe7
:020707000ffbe6
:020708000ffbe5
:020709000ffbe4
:02070a000ffbe3
:02070b000ffbe2
:02070c000ffbe1
:02070d000ffbe0
:02070e000ffbdf
:02070f000ffbde
:020710000ffbdd
:020711000ffbdc
:020712000ffbdb
:020713000ffbda
:020714000ffbd9
:020715000ffbd8
:020716000ffbd7
:020717000ffbd6
:020718000ffbd5
:020719000ffbd4
:02071a000ffbd3
:02071b000ffbd2
:02071c000ffbd1
:02071d000ffbd0
:02071e000ffbcf
:02071f000ffbce
:020720000ffbcd
:020721000ffbcc
:020722000ffbcb
:020723000ffbca
:020724000ffbc9
:020725000ffbc8
:020726000ffbc7
:020727000ffbc6
:020728000ffbc5
:020729000ffbc4
:02072a000ffbc3
:02072b000ffbc2
:02072c000ffbc1
:02072d000ffbc0
:02072e000ffbbf
:02072f000ffbbe
:020730000ffbbd
:020731000ffbbc
:020732000ffbbb
:020733000ffbba
:020734000ffbb9
:020735000ffbb8
:020736000ffbb7
:020737000ffbb6
:020738000ffbb5
:020739000ffbb4
:02073a000ffbb3
:02073b000ffbb2
:02073c000ffbb1
:02073d000ffbb0
:02073e000ffbaf
:02073f000ffbae
:020740000ffbad
:020741000ffbac
:020742000ffbab
:020743000ffbaa
:020744000ffba9
:020745000ffba8
:020746000ffba7
:020747000ffba6
:020748000ffba5
:020749000ffba4
:02074a000ffba3
:02074b000ffba2
:02074c000ffba1
:02074d000ffba0
:02074e000ffb9f
:02074f000ffb9e
:020750000ffb9d
:020751000ffb9c
:020752000ffb9b
:020753000ffb9a
:020754000ffb99
:020755000ffb98
:020756000ffb97
:020757000ffb96
:020758000ffb95
:020759000ffb94
:02075a000ffb93
:02075b000ffb92
:02075c000ffb91
:02075d000ffb90
:02075e000ffb8f
:02075f000ffb8e
:020760000ffb8d
:020761000ffb8c
:020762000ffb8b
:020763000ffb8a
:020764000ffb89
:020765000ffb88
:020766000ffb87
:020767000ffb86
:020768000ffb85
:020769000ffb84
:02076a000ffb83
:02076b000ffb82
:02076c000ffb81
:02076d000ffb80
:02076e000ffb7f
:02076f000ffb7e
:020770000ffb7d
:020771000ffb7c
:020772000ffb7b
:020773000ffb7a
:020774000ffb79
:020775000ffb78
:020776000ffb77
:020777000ffb76
:020778000ffb75
:020779000ffb74
:02077a000ffb73
:02077b000ffb72
:02077c000ffb71
:02077d000ffb70
:02077e000ffb6f
:02077f000ffb6e
:020780000ffb6d
:020781000ffb6c
:020782000ffb6b
:020783000ffb6a
:020784000ffb69
:020785000ffb68
:020786000ffb67
:020787000ffb66
:020788000ffb65
:020789000ffb64
:02078a000ffb63
:02078b000ffb62
:02078c000ffb61
:02078d000ffb60
:02078e000ffb5f
:02078f000ffb5e
:020790000ffb5d
:020791000ffb5c
:020792000ffb5b
:020793000ffb5a
:020794000ffb59
:020795000ffb58
:020796000ffb57
:020797000ffb56
:020798000ffb55
:020799000ffb54
:02079a000ffb53
:02079b000ffb52
:02079c000ffb51
:02079d000ffb50
:02079e000ffb4f
:02079f000ffb4e
:0207a0000ffb4d
:0207a1000ffb4c
:0207a2000ffb4b
:0207a3000ffb4a
:0207a4000ffb49
:0207a5000ffa49
:0207a6000ffa48
:0207a7000ffa47
:0207a8000ffa46
:0207a9000ffa45
:0207aa000ffa44
:0207ab000ffa43
:0207ac000ffa42
:0207ad000ffa41
:0207ae000ffa40
:0207af000ffa3f
:0207b0000ffa3e
:0207b1000ffa3d
:0207b2000ffa3c
:0207b3000ffa3b
:0207b4000ffa3a
:0207b5000ffa39
:0207b6000ffa38
:0207b7000ffa37
:0207b8000ffa36
:0207b9000ffa35
:0207ba000ffa34
:0207bb000ffa33
:0207bc000ffa32
:0207bd000ffa31
:0207be000ffa30
:0207bf000ffa2f
:0207c0000ffa2e
:0207c1000ffa2d
:0207c2000ffa2c
:0207c3000ffa2b
:0207c4000ffa2a
:0207c5000ffa29
:0207c6000ffa28
:0207c7000ffa27
:0207c8000ffa26
:0207c9000ffa25
:0207ca000ffa24
:0207cb000ffa23
:0207cc000ffa22
:0207cd000ffa21
:0207ce000ffa20
:0207cf000ffa1f
:0207d0000ffa1e
:0207d1000ffa1d
:0207d2000ffa1c
:0207d3000ffa1b
:0207d4000ffa1a
:0207d5000ffa19
:0207d6000ffa18
:0207d7000ffa17
:0207d8000ffa16
:0207d9000ffa15
:0207da000ffa14
:0207db000ffa13
:0207dc000ffa12
:0207dd000ffa11
:0207de000ffa10
:0207df000ffa0f
:0207e0000ffa0e
:0207e1000ffa0d
:0207e2000ffa0c
:0207e3000ffa0b
:0207e4000ffa0a
:0207e5000ffa09
:0207e6000ffa08
:0207e7000ffa07
:0207e8000ffa06
:0207e9000ffa05
:0207ea000ffa04
:0207eb000ffa03
:0207ec000ffa02
:0207ed000ffa01
:0207ee000ffa00
:0207ef000ffaff
:0207f0000ffafe
:0207f1000ffafd
:0207f2000ffafc
:0207f3000ffafb
:0207f4000ffafa
:0207f5000ffaf9
:0207f6000ffaf8
:0207f7000ffaf7
:0207f8000ffaf6
:0207f9000ffaf5
:0207fa000ffaf4
:0207fb000ffaf3
:0207fc000ffaf2
:0207fd000ffaf1
:0207fe000ffaf0
:0207ff000ffaef
:020800000ffaed
:020801000ffaec
:020802000ffaeb
:020803000ffaea
:020804000ffae9
:020805000ffae8
:020806000ffae7
:020807000ffae6
:020808000ffae5
:020809000ffae4
:02080a000ffae3
:02080b000ffae2
:02080c000ffae1
:02080d000ffae0
:02080e000ffadf
:02080f000ffade
:020810000ffadd
:020811000ffadc
:020812000ffadb
:020813000ffada
:020814000ffad9
:020815000ffad8
:020816000ffad7
:020817000ffad6
:020818000ffad5
:020819000ffad4
:02081a000ffad3
:02081b000ffad2
:02081c000ffad1
:02081d000ffad0
:02081e000ffacf
:02081f000fface
:020820000ffacd
:020821000ffacc
:020822000ffacb
:020823000ffaca
:020824000ffac9
:020825000ffac8
:020826000ffac7
:020827000ffac6
:020828000ffac5
:020829000ffac4
:02082a000ffac3
:02082b000ffac2
:02082c000ffac1
:02082d000ffac0
:02082e000ffabf
:02082f000ffabe
:020830000ffabd
:020831000ffabc
:020832000ffabb
:020833000ffaba
:020834000ffab9
:020835000ffab8
:020836000ffab7
:020837000ffab6
:020838000ffab5
:020839000ffab4
:02083a000ffab3
:02083b000ffab2
:02083c000ffab1
:02083d000ffab0
:02083e000ffaaf
:02083f000ffaae
:020840000ffaad
:020841000ffaac
:020842000ffaab
:020843000ffaaa
:020844000ffaa9
:020845000ffaa8
:020846000ffaa7
:020847000ffaa6
:020848000ffaa5
:020849000ffaa4
:02084a000ffaa3
:02084b000ffaa2
:02084c000ffaa1
:02084d000ffaa0
:02084e000ffa9f
:02084f000ffa9e
:020850000ffa9d
:020851000ffa9c
:020852000ffa9b
:020853000ffa9a
:020854000ffa99
:020855000ffa98
:020856000ffa97
:020857000ffa96
:020858000ffa95
:020859000ffa94
:02085a000ffa93
:02085b000ffa92
:02085c000ffa91
:02085d000ffa90
:02085e000ffa8f
:02085f000ffa8e
:020860000ffa8d
:020861000ffa8c
:020862000ffa8b
:020863000ffa8a
:020864000ffa89
:020865000ffa88
:020866000ffa87
:020867000ffa86
:020868000ffa85
:020869000ffa84
:02086a000ffa83
:02086b000ffa82
:02086c000ffa81
:02086d000ffa80
:02086e000ffa7f
:02086f000ffa7e
:020870000ffa7d
:020871000ffa7c
:020872000ffa7b
:020873000ff97b
:020874000ff97a
:020875000ff979
:020876000ff978
:020877000ff977
:020878000ff976
:020879000ff975
:02087a000ff974
:02087b000ff973
:02087c000ff972
:02087d000ff971
:02087e000ff970
:02087f000ff96f
:020880000ff96e
:020881000ff96d
:020882000ff96c
:020883000ff96b
:020884000ff96a
:020885000ff969
:020886000ff968
:020887000ff967
:020888000ff966
:020889000ff965
:02088a000ff964
:02088b000ff963
:02088c000ff962
:02088d000ff961
:02088e000ff960
:02088f000ff95f
:020890000ff95e
:020891000ff95d
:020892000ff95c
:020893000ff95b
:020894000ff95a
:020895000ff959
:020896000ff958
:020897000ff957
:020898000ff956
:020899000ff955
:02089a000ff954
:02089b000ff953
:02089c000ff952
:02089d000ff951
:02089e000ff950
:02089f000ff94f
:0208a0000ff94e
:0208a1000ff94d
:0208a2000ff94c
:0208a3000ff94b
:0208a4000ff94a
:0208a5000ff949
:0208a6000ff948
:0208a7000ff947
:0208a8000ff946
:0208a9000ff945
:0208aa000ff944
:0208ab000ff943
:0208ac000ff942
:0208ad000ff941
:0208ae000ff940
:0208af000ff93f
:0208b0000ff93e
:0208b1000ff93d
:0208b2000ff93c
:0208b3000ff93b
:0208b4000ff93a
:0208b5000ff939
:0208b6000ff938
:0208b7000ff937
:0208b8000ff936
:0208b9000ff935
:0208ba000ff934
:0208bb000ff933
:0208bc000ff932
:0208bd000ff931
:0208be000ff930
:0208bf000ff92f
:0208c0000ff92e
:0208c1000ff92d
:0208c2000ff92c
:0208c3000ff92b
:0208c4000ff92a
:0208c5000ff929
:0208c6000ff928
:0208c7000ff927
:0208c8000ff926
:0208c9000ff925
:0208ca000ff924
:0208cb000ff923
:0208cc000ff922
:0208cd000ff921
:0208ce000ff920
:0208cf000ff91f
:0208d0000ff91e
:0208d1000ff91d
:0208d2000ff91c
:0208d3000ff91b
:0208d4000ff91a
:0208d5000ff919
:0208d6000ff918
:0208d7000ff917
:0208d8000ff916
:0208d9000ff915
:0208da000ff914
:0208db000ff913
:0208dc000ff912
:0208dd000ff911
:0208de000ff910
:0208df000ff90f
:0208e0000ff90e
:0208e1000ff90d
:0208e2000ff90c
:0208e3000ff90b
:0208e4000ff90a
:0208e5000ff909
:0208e6000ff908
:0208e7000ff907
:0208e8000ff906
:0208e9000ff905
:0208ea000ff904
:0208eb000ff903
:0208ec000ff902
:0208ed000ff901
:0208ee000ff900
:0208ef000ff9ff
:0208f0000ff9fe
:0208f1000ff9fd
:0208f2000ff9fc
:0208f3000ff9fb
:0208f4000ff9fa
:0208f5000ff9f9
:0208f6000ff9f8
:0208f7000ff9f7
:0208f8000ff9f6
:0208f9000ff9f5
:0208fa000ff9f4
:0208fb000ff9f3
:0208fc000ff9f2
:0208fd000ff9f1
:0208fe000ff9f0
:0208ff000ff9ef
:020900000ff9ed
:020901000ff9ec
:020902000ff9eb
:020903000ff9ea
:020904000ff9e9
:020905000ff9e8
:020906000ff9e7
:020907000ff9e6
:020908000ff9e5
:020909000ff9e4
:02090a000ff9e3
:02090b000ff9e2
:02090c000ff9e1
:02090d000ff9e0
:02090e000ff9df
:02090f000ff9de
:020910000ff9dd
:020911000ff9dc
:020912000ff9db
:020913000ff9da
:020914000ff9d9
:020915000ff9d8
:020916000ff9d7
:020917000ff9d6
:020918000ff9d5
:020919000ff9d4
:02091a000ff9d3
:02091b000ff9d2
:02091c000ff9d1
:02091d000ff9d0
:02091e000ff9cf
:02091f000ff9ce
:020920000ff9cd
:020921000ff9cc
:020922000ff9cb
:020923000ff9ca
:020924000ff9c9
:020925000ff9c8
:020926000ff9c7
:020927000ff9c6
:020928000ff9c5
:020929000ff9c4
:02092a000ff9c3
:02092b000ff9c2
:02092c000ff9c1
:02092d000ff9c0
:02092e000ff9bf
:02092f000ff9be
:020930000ff8be
:020931000ff8bd
:020932000ff8bc
:020933000ff8bb
:020934000ff8ba
:020935000ff8b9
:020936000ff8b8
:020937000ff8b7
:020938000ff8b6
:020939000ff8b5
:02093a000ff8b4
:02093b000ff8b3
:02093c000ff8b2
:02093d000ff8b1
:02093e000ff8b0
:02093f000ff8af
:020940000ff8ae
:020941000ff8ad
:020942000ff8ac
:020943000ff8ab
:020944000ff8aa
:020945000ff8a9
:020946000ff8a8
:020947000ff8a7
:020948000ff8a6
:020949000ff8a5
:02094a000ff8a4
:02094b000ff8a3
:02094c000ff8a2
:02094d000ff8a1
:02094e000ff8a0
:02094f000ff89f
:020950000ff89e
:020951000ff89d
:020952000ff89c
:020953000ff89b
:020954000ff89a
:020955000ff899
:020956000ff898
:020957000ff897
:020958000ff896
:020959000ff895
:02095a000ff894
:02095b000ff893
:02095c000ff892
:02095d000ff891
:02095e000ff890
:02095f000ff88f
:020960000ff88e
:020961000ff88d
:020962000ff88c
:020963000ff88b
:020964000ff88a
:020965000ff889
:020966000ff888
:020967000ff887
:020968000ff886
:020969000ff885
:02096a000ff884
:02096b000ff883
:02096c000ff882
:02096d000ff881
:02096e000ff880
:02096f000ff87f
:020970000ff87e
:020971000ff87d
:020972000ff87c
:020973000ff87b
:020974000ff87a
:020975000ff879
:020976000ff878
:020977000ff877
:020978000ff876
:020979000ff875
:02097a000ff874
:02097b000ff873
:02097c000ff872
:02097d000ff871
:02097e000ff870
:02097f000ff86f
:020980000ff86e
:020981000ff86d
:020982000ff86c
:020983000ff86b
:020984000ff86a
:020985000ff869
:020986000ff868
:020987000ff867
:020988000ff866
:020989000ff865
:02098a000ff864
:02098b000ff863
:02098c000ff862
:02098d000ff861
:02098e000ff860
:02098f000ff85f
:020990000ff85e
:020991000ff85d
:020992000ff85c
:020993000ff85b
:020994000ff85a
:020995000ff859
:020996000ff858
:020997000ff857
:020998000ff856
:020999000ff855
:02099a000ff854
:02099b000ff853
:02099c000ff852
:02099d000ff851
:02099e000ff850
:02099f000ff84f
:0209a0000ff84e
:0209a1000ff84d
:0209a2000ff84c
:0209a3000ff84b
:0209a4000ff84a
:0209a5000ff849
:0209a6000ff848
:0209a7000ff847
:0209a8000ff846
:0209a9000ff845
:0209aa000ff844
:0209ab000ff843
:0209ac000ff842
:0209ad000ff841
:0209ae000ff840
:0209af000ff83f
:0209b0000ff83e
:0209b1000ff83d
:0209b2000ff83c
:0209b3000ff83b
:0209b4000ff83a
:0209b5000ff839
:0209b6000ff838
:0209b7000ff837
:0209b8000ff836
:0209b9000ff835
:0209ba000ff834
:0209bb000ff833
:0209bc000ff832
:0209bd000ff831
:0209be000ff830
:0209bf000ff82f
:0209c0000ff82e
:0209c1000ff82d
:0209c2000ff82c
:0209c3000ff82b
:0209c4000ff82a
:0209c5000ff829
:0209c6000ff828
:0209c7000ff827
:0209c8000ff826
:0209c9000ff825
:0209ca000ff824
:0209cb000ff823
:0209cc000ff822
:0209cd000ff821
:0209ce000ff820
:0209cf000ff81f
:0209d0000ff81e
:0209d1000ff81d
:0209d2000ff81c
:0209d3000ff81b
:0209d4000ff81a
:0209d5000ff819
:0209d6000ff818
:0209d7000ff817
:0209d8000ff816
:0209d9000ff815
:0209da000ff814
:0209db000ff813
:0209dc000ff812
:0209dd000ff811
:0209de000ff711
:0209df000ff710
:0209e0000ff70f
:0209e1000ff70e
:0209e2000ff70d
:0209e3000ff70c
:0209e4000ff70b
:0209e5000ff70a
:0209e6000ff709
:0209e7000ff708
:0209e8000ff707
:0209e9000ff706
:0209ea000ff705
:0209eb000ff704
:0209ec000ff703
:0209ed000ff702
:0209ee000ff701
:0209ef000ff700
:0209f0000ff7ff
:0209f1000ff7fe
:0209f2000ff7fd
:0209f3000ff7fc
:0209f4000ff7fb
:0209f5000ff7fa
:0209f6000ff7f9
:0209f7000ff7f8
:0209f8000ff7f7
:0209f9000ff7f6
:0209fa000ff7f5
:0209fb000ff7f4
:0209fc000ff7f3
:0209fd000ff7f2
:0209fe000ff7f1
:0209ff000ff7f0
:020a00000ff7ee
:020a01000ff7ed
:020a02000ff7ec
:020a03000ff7eb
:020a04000ff7ea
:020a05000ff7e9
:020a06000ff7e8
:020a07000ff7e7
:020a08000ff7e6
:020a09000ff7e5
:020a0a000ff7e4
:020a0b000ff7e3
:020a0c000ff7e2
:020a0d000ff7e1
:020a0e000ff7e0
:020a0f000ff7df
:020a10000ff7de
:020a11000ff7dd
:020a12000ff7dc
:020a13000ff7db
:020a14000ff7da
:020a15000ff7d9
:020a16000ff7d8
:020a17000ff7d7
:020a18000ff7d6
:020a19000ff7d5
:020a1a000ff7d4
:020a1b000ff7d3
:020a1c000ff7d2
:020a1d000ff7d1
:020a1e000ff7d0
:020a1f000ff7cf
:020a20000ff7ce
:020a21000ff7cd
:020a22000ff7cc
:020a23000ff7cb
:020a24000ff7ca
:020a25000ff7c9
:020a26000ff7c8
:020a27000ff7c7
:020a28000ff7c6
:020a29000ff7c5
:020a2a000ff7c4
:020a2b000ff7c3
:020a2c000ff7c2
:020a2d000ff7c1
:020a2e000ff7c0
:020a2f000ff7bf
:020a30000ff7be
:020a31000ff7bd
:020a32000ff7bc
:020a33000ff7bb
:020a34000ff7ba
:020a35000ff7b9
:020a36000ff7b8
:020a37000ff7b7
:020a38000ff7b6
:020a39000ff7b5
:020a3a000ff7b4
:020a3b000ff7b3
:020a3c000ff7b2
:020a3d000ff7b1
:020a3e000ff7b0
:020a3f000ff7af
:020a40000ff7ae
:020a41000ff7ad
:020a42000ff7ac
:020a43000ff7ab
:020a44000ff7aa
:020a45000ff7a9
:020a46000ff7a8
:020a47000ff7a7
:020a48000ff7a6
:020a49000ff7a5
:020a4a000ff7a4
:020a4b000ff7a3
:020a4c000ff7a2
:020a4d000ff7a1
:020a4e000ff7a0
:020a4f000ff79f
:020a50000ff79e
:020a51000ff79d
:020a52000ff79c
:020a53000ff79b
:020a54000ff79a
:020a55000ff799
:020a56000ff798
:020a57000ff797
:020a58000ff796
:020a59000ff795
:020a5a000ff794
:020a5b000ff793
:020a5c000ff792
:020a5d000ff791
:020a5e000ff790
:020a5f000ff78f
:020a60000ff78e
:020a61000ff78d
:020a62000ff78c
:020a63000ff78b
:020a64000ff78a
:020a65000ff789
:020a66000ff788
:020a67000ff787
:020a68000ff786
:020a69000ff785
:020a6a000ff784
:020a6b000ff783
:020a6c000ff782
:020a6d000ff781
:020a6e000ff780
:020a6f000ff77f
:020a70000ff77e
:020a71000ff77d
:020a72000ff77c
:020a73000ff77b
:020a74000ff77a
:020a75000ff779
:020a76000ff778
:020a77000ff777
:020a78000ff776
:020a79000ff775
:020a7a000ff774
:020a7b000ff773
:020a7c000ff772
:020a7d000ff771
:020a7e000ff770
:020a7f000ff76f
:020a80000ff76e
:020a81000ff66e
:020a82000ff66d
:020a83000ff66c
:020a84000ff66b
:020a85000ff66a
:020a86000ff669
:020a87000ff668
:020a88000ff667
:020a89000ff666
:020a8a000ff665
:020a8b000ff664
:020a8c000ff663
:020a8d000ff662
:020a8e000ff661
:020a8f000ff660
:020a90000ff65f
:020a91000ff65e
:020a92000ff65d
:020a93000ff65c
:020a94000ff65b
:020a95000ff65a
:020a96000ff659
:020a97000ff658
:020a98000ff657
:020a99000ff656
:020a9a000ff655
:020a9b000ff654
:020a9c000ff653
:020a9d000ff652
:020a9e000ff651
:020a9f000ff650
:020aa0000ff64f
:020aa1000ff64e
:020aa2000ff64d
:020aa3000ff64c
:020aa4000ff64b
:020aa5000ff64a
:020aa6000ff649
:020aa7000ff648
:020aa8000ff647
:020aa9000ff646
:020aaa000ff645
:020aab000ff644
:020aac000ff643
:020aad000ff642
:020aae000ff641
:020aaf000ff640
:020ab0000ff63f
:020ab1000ff63e
:020ab2000ff63d
:020ab3000ff63c
:020ab4000ff63b
:020ab5000ff63a
:020ab6000ff639
:020ab7000ff638
:020ab8000ff637
:020ab9000ff636
:020aba000ff635
:020abb000ff634
:020abc000ff633
:020abd000ff632
:020abe000ff631
:020abf000ff630
:020ac0000ff62f
:020ac1000ff62e
:020ac2000ff62d
:020ac3000ff62c
:020ac4000ff62b
:020ac5000ff62a
:020ac6000ff629
:020ac7000ff628
:020ac8000ff627
:020ac9000ff626
:020aca000ff625
:020acb000ff624
:020acc000ff623
:020acd000ff622
:020ace000ff621
:020acf000ff620
:020ad0000ff61f
:020ad1000ff61e
:020ad2000ff61d
:020ad3000ff61c
:020ad4000ff61b
:020ad5000ff61a
:020ad6000ff619
:020ad7000ff618
:020ad8000ff617
:020ad9000ff616
:020ada000ff615
:020adb000ff614
:020adc000ff613
:020add000ff612
:020ade000ff611
:020adf000ff610
:020ae0000ff60f
:020ae1000ff60e
:020ae2000ff60d
:020ae3000ff60c
:020ae4000ff60b
:020ae5000ff60a
:020ae6000ff609
:020ae7000ff608
:020ae8000ff607
:020ae9000ff606
:020aea000ff605
:020aeb000ff604
:020aec000ff603
:020aed000ff602
:020aee000ff601
:020aef000ff600
:020af0000ff6ff
:020af1000ff6fe
:020af2000ff6fd
:020af3000ff6fc
:020af4000ff6fb
:020af5000ff6fa
:020af6000ff6f9
:020af7000ff6f8
:020af8000ff6f7
:020af9000ff6f6
:020afa000ff6f5
:020afb000ff6f4
:020afc000ff6f3
:020afd000ff6f2
:020afe000ff6f1
:020aff000ff6f0
:020b00000ff6ee
:020b01000ff6ed
:020b02000ff6ec
:020b03000ff6eb
:020b04000ff6ea
:020b05000ff6e9
:020b06000ff6e8
:020b07000ff6e7
:020b08000ff6e6
:020b09000ff6e5
:020b0a000ff6e4
:020b0b000ff6e3
:020b0c000ff6e2
:020b0d000ff6e1
:020b0e000ff6e0
:020b0f000ff6df
:020b10000ff6de
:020b11000ff6dd
:020b12000ff6dc
:020b13000ff6db
:020b14000ff6da
:020b15000ff6d9
:020b16000ff6d8
:020b17000ff6d7
:020b18000ff6d6
:020b19000ff6d5
:020b1a000ff6d4
:020b1b000ff5d4
:020b1c000ff5d3
:020b1d000ff5d2
:020b1e000ff5d1
:020b1f000ff5d0
:020b20000ff5cf
:020b21000ff5ce
:020b22000ff5cd
:020b23000ff5cc
:020b24000ff5cb
:020b25000ff5ca
:020b26000ff5c9
:020b27000ff5c8
:020b28000ff5c7
:020b29000ff5c6
:020b2a000ff5c5
:020b2b000ff5c4
:020b2c000ff5c3
:020b2d000ff5c2
:020b2e000ff5c1
:020b2f000ff5c0
:020b30000ff5bf
:020b31000ff5be
:020b32000ff5bd
:020b33000ff5bc
:020b34000ff5bb
:020b35000ff5ba
:020b36000ff5b9
:020b37000ff5b8
:020b38000ff5b7
:020b39000ff5b6
:020b3a000ff5b5
:020b3b000ff5b4
:020b3c000ff5b3
:020b3d000ff5b2
:020b3e000ff5b1
:020b3f000ff5b0
:020b40000ff5af
:020b41000ff5ae
:020b42000ff5ad
:020b43000ff5ac
:020b44000ff5ab
:020b45000ff5aa
:020b46000ff5a9
:020b47000ff5a8
:020b48000ff5a7
:020b49000ff5a6
:020b4a000ff5a5
:020b4b000ff5a4
:020b4c000ff5a3
:020b4d000ff5a2
:020b4e000ff5a1
:020b4f000ff5a0
:020b50000ff59f
:020b51000ff59e
:020b52000ff59d
:020b53000ff59c
:020b54000ff59b
:020b55000ff59a
:020b56000ff599
:020b57000ff598
:020b58000ff597
:020b59000ff596
:020b5a000ff595
:020b5b000ff594
:020b5c000ff593
:020b5d000ff592
:020b5e000ff591
:020b5f000ff590
:020b60000ff58f
:020b61000ff58e
:020b62000ff58d
:020b63000ff58c
:020b64000ff58b
:020b65000ff58a
:020b66000ff589
:020b67000ff588
:020b68000ff587
:020b69000ff586
:020b6a000ff585
:020b6b000ff584
:020b6c000ff583
:020b6d000ff582
:020b6e000ff581
:020b6f000ff580
:020b70000ff57f
:020b71000ff57e
:020b72000ff57d
:020b73000ff57c
:020b74000ff57b
:020b75000ff57a
:020b76000ff579
:020b77000ff578
:020b78000ff577
:020b79000ff576
:020b7a000ff575
:020b7b000ff574
:020b7c000ff573
:020b7d000ff572
:020b7e000ff571
:020b7f000ff570
:020b80000ff56f
:020b81000ff56e
:020b82000ff56d
:020b83000ff56c
:020b84000ff56b
:020b85000ff56a
:020b86000ff569
:020b87000ff568
:020b88000ff567
:020b89000ff566
:020b8a000ff565
:020b8b000ff564
:020b8c000ff563
:020b8d000ff562
:020b8e000ff561
:020b8f000ff560
:020b90000ff55f
:020b91000ff55e
:020b92000ff55d
:020b93000ff55c
:020b94000ff55b
:020b95000ff55a
:020b96000ff559
:020b97000ff558
:020b98000ff557
:020b99000ff556
:020b9a000ff555
:020b9b000ff554
:020b9c000ff553
:020b9d000ff552
:020b9e000ff551
:020b9f000ff550
:020ba0000ff54f
:020ba1000ff54e
:020ba2000ff54d
:020ba3000ff54c
:020ba4000ff54b
:020ba5000ff54a
:020ba6000ff549
:020ba7000ff548
:020ba8000ff547
:020ba9000ff546
:020baa000ff545
:020bab000ff544
:020bac000ff543
:020bad000ff443
:020bae000ff442
:020baf000ff441
:020bb0000ff440
:020bb1000ff43f
:020bb2000ff43e
:020bb3000ff43d
:020bb4000ff43c
:020bb5000ff43b
:020bb6000ff43a
:020bb7000ff439
:020bb8000ff438
:020bb9000ff437
:020bba000ff436
:020bbb000ff435
:020bbc000ff434
:020bbd000ff433
:020bbe000ff432
:020bbf000ff431
:020bc0000ff430
:020bc1000ff42f
:020bc2000ff42e
:020bc3000ff42d
:020bc4000ff42c
:020bc5000ff42b
:020bc6000ff42a
:020bc7000ff429
:020bc8000ff428
:020bc9000ff427
:020bca000ff426
:020bcb000ff425
:020bcc000ff424
:020bcd000ff423
:020bce000ff422
:020bcf000ff421
:020bd0000ff420
:020bd1000ff41f
:020bd2000ff41e
:020bd3000ff41d
:020bd4000ff41c
:020bd5000ff41b
:020bd6000ff41a
:020bd7000ff419
:020bd8000ff418
:020bd9000ff417
:020bda000ff416
:020bdb000ff415
:020bdc000ff414
:020bdd000ff413
:020bde000ff412
:020bdf000ff411
:020be0000ff410
:020be1000ff40f
:020be2000ff40e
:020be3000ff40d
:020be4000ff40c
:020be5000ff40b
:020be6000ff40a
:020be7000ff409
:020be8000ff408
:020be9000ff407
:020bea000ff406
:020beb000ff405
:020bec000ff404
:020bed000ff403
:020bee000ff402
:020bef000ff401
:020bf0000ff400
:020bf1000ff4ff
:020bf2000ff4fe
:020bf3000ff4fd
:020bf4000ff4fc
:020bf5000ff4fb
:020bf6000ff4fa
:020bf7000ff4f9
:020bf8000ff4f8
:020bf9000ff4f7
:020bfa000ff4f6
:020bfb000ff4f5
:020bfc000ff4f4
:020bfd000ff4f3
:020bfe000ff4f2
:020bff000ff4f1
:020c00000ff4ef
:020c01000ff4ee
:020c02000ff4ed
:020c03000ff4ec
:020c04000ff4eb
:020c05000ff4ea
:020c06000ff4e9
:020c07000ff4e8
:020c08000ff4e7
:020c09000ff4e6
:020c0a000ff4e5
:020c0b000ff4e4
:020c0c000ff4e3
:020c0d000ff4e2
:020c0e000ff4e1
:020c0f000ff4e0
:020c10000ff4df
:020c11000ff4de
:020c12000ff4dd
:020c13000ff4dc
:020c14000ff4db
:020c15000ff4da
:020c16000ff4d9
:020c17000ff4d8
:020c18000ff4d7
:020c19000ff4d6
:020c1a000ff4d5
:020c1b000ff4d4
:020c1c000ff4d3
:020c1d000ff4d2
:020c1e000ff4d1
:020c1f000ff4d0
:020c20000ff4cf
:020c21000ff4ce
:020c22000ff4cd
:020c23000ff4cc
:020c24000ff4cb
:020c25000ff4ca
:020c26000ff4c9
:020c27000ff4c8
:020c28000ff4c7
:020c29000ff4c6
:020c2a000ff4c5
:020c2b000ff4c4
:020c2c000ff4c3
:020c2d000ff4c2
:020c2e000ff4c1
:020c2f000ff4c0
:020c30000ff4bf
:020c31000ff4be
:020c32000ff4bd
:020c33000ff4bc
:020c34000ff4bb
:020c35000ff4ba
:020c36000ff4b9
:020c37000ff4b8
:020c38000ff3b8
:020c39000ff3b7
:020c3a000ff3b6
:020c3b000ff3b5
:020c3c000ff3b4
:020c3d000ff3b3
:020c3e000ff3b2
:020c3f000ff3b1
:020c40000ff3b0
:020c41000ff3af
:020c42000ff3ae
:020c43000ff3ad
:020c44000ff3ac
:020c45000ff3ab
:020c46000ff3aa
:020c47000ff3a9
:020c48000ff3a8
:020c49000ff3a7
:020c4a000ff3a6
:020c4b000ff3a5
:020c4c000ff3a4
:020c4d000ff3a3
:020c4e000ff3a2
:020c4f000ff3a1
:020c50000ff3a0
:020c51000ff39f
:020c52000ff39e
:020c53000ff39d
:020c54000ff39c
:020c55000ff39b
:020c56000ff39a
:020c57000ff399
:020c58000ff398
:020c59000ff397
:020c5a000ff396
:020c5b000ff395
:020c5c000ff394
:020c5d000ff393
:020c5e000ff392
:020c5f000ff391
:020c60000ff390
:020c61000ff38f
:020c62000ff38e
:020c63000ff38d
:020c64000ff38c
:020c65000ff38b
:020c66000ff38a
:020c67000ff389
:020c68000ff388
:020c69000ff387
:020c6a000ff386
:020c6b000ff385
:020c6c000ff384
:020c6d000ff383
:020c6e000ff382
:020c6f000ff381
:020c70000ff380
:020c71000ff37f
:020c72000ff37e
:020c73000ff37d
:020c74000ff37c
:020c75000ff37b
:020c76000ff37a
:020c77000ff379
:020c78000ff378
:020c79000ff377
:020c7a000ff376
:020c7b000ff375
:020c7c000ff374
:020c7d000ff373
:020c7e000ff372
:020c7f000ff371
:020c80000ff370
:020c81000ff36f
:020c82000ff36e
:020c83000ff36d
:020c84000ff36c
:020c85000ff36b
:020c86000ff36a
:020c87000ff369
:020c88000ff368
:020c89000ff367
:020c8a000ff366
:020c8b000ff365
:020c8c000ff364
:020c8d000ff363
:020c8e000ff362
:020c8f000ff361
:020c90000ff360
:020c91000ff35f
:020c92000ff35e
:020c93000ff35d
:020c94000ff35c
:020c95000ff35b
:020c96000ff35a
:020c97000ff359
:020c98000ff358
:020c99000ff357
:020c9a000ff356
:020c9b000ff355
:020c9c000ff354
:020c9d000ff353
:020c9e000ff352
:020c9f000ff351
:020ca0000ff350
:020ca1000ff34f
:020ca2000ff34e
:020ca3000ff34d
:020ca4000ff34c
:020ca5000ff34b
:020ca6000ff34a
:020ca7000ff349
:020ca8000ff348
:020ca9000ff347
:020caa000ff346
:020cab000ff345
:020cac000ff344
:020cad000ff343
:020cae000ff342
:020caf000ff341
:020cb0000ff340
:020cb1000ff33f
:020cb2000ff33e
:020cb3000ff33d
:020cb4000ff33c
:020cb5000ff33b
:020cb6000ff33a
:020cb7000ff339
:020cb8000ff338
:020cb9000ff337
:020cba000ff336
:020cbb000ff335
:020cbc000ff334
:020cbd000ff234
:020cbe000ff233
:020cbf000ff232
:020cc0000ff231
:020cc1000ff230
:020cc2000ff22f
:020cc3000ff22e
:020cc4000ff22d
:020cc5000ff22c
:020cc6000ff22b
:020cc7000ff22a
:020cc8000ff229
:020cc9000ff228
:020cca000ff227
:020ccb000ff226
:020ccc000ff225
:020ccd000ff224
:020cce000ff223
:020ccf000ff222
:020cd0000ff221
:020cd1000ff220
:020cd2000ff21f
:020cd3000ff21e
:020cd4000ff21d
:020cd5000ff21c
:020cd6000ff21b
:020cd7000ff21a
:020cd8000ff219
:020cd9000ff218
:020cda000ff217
:020cdb000ff216
:020cdc000ff215
:020cdd000ff214
:020cde000ff213
:020cdf000ff212
:020ce0000ff211
:020ce1000ff210
:020ce2000ff20f
:020ce3000ff20e
:020ce4000ff20d
:020ce5000ff20c
:020ce6000ff20b
:020ce7000ff20a
:020ce8000ff209
:020ce9000ff208
:020cea000ff207
:020ceb000ff206
:020cec000ff205
:020ced000ff204
:020cee000ff203
:020cef000ff202
:020cf0000ff201
:020cf1000ff200
:020cf2000ff2ff
:020cf3000ff2fe
:020cf4000ff2fd
:020cf5000ff2fc
:020cf6000ff2fb
:020cf7000ff2fa
:020cf8000ff2f9
:020cf9000ff2f8
:020cfa000ff2f7
:020cfb000ff2f6
:020cfc000ff2f5
:020cfd000ff2f4
:020cfe000ff2f3
:020cff000ff2f2
:020d00000ff2f0
:020d01000ff2ef
:020d02000ff2ee
:020d03000ff2ed
:020d04000ff2ec
:020d05000ff2eb
:020d06000ff2ea
:020d07000ff2e9
:020d08000ff2e8
:020d09000ff2e7
:020d0a000ff2e6
:020d0b000ff2e5
:020d0c000ff2e4
:020d0d000ff2e3
:020d0e000ff2e2
:020d0f000ff2e1
:020d10000ff2e0
:020d11000ff2df
:020d12000ff2de
:020d13000ff2dd
:020d14000ff2dc
:020d15000ff2db
:020d16000ff2da
:020d17000ff2d9
:020d18000ff2d8
:020d19000ff2d7
:020d1a000ff2d6
:020d1b000ff2d5
:020d1c000ff2d4
:020d1d000ff2d3
:020d1e000ff2d2
:020d1f000ff2d1
:020d20000ff2d0
:020d21000ff2cf
:020d22000ff2ce
:020d23000ff2cd
:020d24000ff2cc
:020d25000ff2cb
:020d26000ff2ca
:020d27000ff2c9
:020d28000ff2c8
:020d29000ff2c7
:020d2a000ff2c6
:020d2b000ff2c5
:020d2c000ff2c4
:020d2d000ff2c3
:020d2e000ff2c2
:020d2f000ff2c1
:020d30000ff2c0
:020d31000ff2bf
:020d32000ff2be
:020d33000ff2bd
:020d34000ff2bc
:020d35000ff2bb
:020d36000ff2ba
:020d37000ff2b9
:020d38000ff2b8
:020d39000ff2b7
:020d3a000ff2b6
:020d3b000ff2b5
:020d3c000ff2b4
:020d3d000ff1b4
:020d3e000ff1b3
:020d3f000ff1b2
:020d40000ff1b1
:020d41000ff1b0
:020d42000ff1af
:020d43000ff1ae
:020d44000ff1ad
:020d45000ff1ac
:020d46000ff1ab
:020d47000ff1aa
:020d48000ff1a9
:020d49000ff1a8
:020d4a000ff1a7
:020d4b000ff1a6
:020d4c000ff1a5
:020d4d000ff1a4
:020d4e000ff1a3
:020d4f000ff1a2
:020d50000ff1a1
:020d51000ff1a0
:020d52000ff19f
:020d53000ff19e
:020d54000ff19d
:020d55000ff19c
:020d56000ff19b
:020d57000ff19a
:020d58000ff199
:020d59000ff198
:020d5a000ff197
:020d5b000ff196
:020d5c000ff195
:020d5d000ff194
:020d5e000ff193
:020d5f000ff192
:020d60000ff191
:020d61000ff190
:020d62000ff18f
:020d63000ff18e
:020d64000ff18d
:020d65000ff18c
:020d66000ff18b
:020d67000ff18a
:020d68000ff189
:020d69000ff188
:020d6a000ff187
:020d6b000ff186
:020d6c000ff185
:020d6d000ff184
:020d6e000ff183
:020d6f000ff182
:020d70000ff181
:020d71000ff180
:020d72000ff17f
:020d73000ff17e
:020d74000ff17d
:020d75000ff17c
:020d76000ff17b
:020d77000ff17a
:020d78000ff179
:020d79000ff178
:020d7a000ff177
:020d7b000ff176
:020d7c000ff175
:020d7d000ff174
:020d7e000ff173
:020d7f000ff172
:020d80000ff171
:020d81000ff170
:020d82000ff16f
:020d83000ff16e
:020d84000ff16d
:020d85000ff16c
:020d86000ff16b
:020d87000ff16a
:020d88000ff169
:020d89000ff168
:020d8a000ff167
:020d8b000ff166
:020d8c000ff165
:020d8d000ff164
:020d8e000ff163
:020d8f000ff162
:020d90000ff161
:020d91000ff160
:020d92000ff15f
:020d93000ff15e
:020d94000ff15d
:020d95000ff15c
:020d96000ff15b
:020d97000ff15a
:020d98000ff159
:020d99000ff158
:020d9a000ff157
:020d9b000ff156
:020d9c000ff155
:020d9d000ff154
:020d9e000ff153
:020d9f000ff152
:020da0000ff151
:020da1000ff150
:020da2000ff14f
:020da3000ff14e
:020da4000ff14d
:020da5000ff14c
:020da6000ff14b
:020da7000ff14a
:020da8000ff149
:020da9000ff148
:020daa000ff147
:020dab000ff146
:020dac000ff145
:020dad000ff144
:020dae000ff143
:020daf000ff142
:020db0000ff141
:020db1000ff140
:020db2000ff13f
:020db3000ff13e
:020db4000ff13d
:020db5000ff13c
:020db6000ff13b
:020db7000ff13a
:020db8000ff139
:020db9000ff039
:020dba000ff038
:020dbb000ff037
:020dbc000ff036
:020dbd000ff035
:020dbe000ff034
:020dbf000ff033
:020dc0000ff032
:020dc1000ff031
:020dc2000ff030
:020dc3000ff02f
:020dc4000ff02e
:020dc5000ff02d
:020dc6000ff02c
:020dc7000ff02b
:020dc8000ff02a
:020dc9000ff029
:020dca000ff028
:020dcb000ff027
:020dcc000ff026
:020dcd000ff025
:020dce000ff024
:020dcf000ff023
:020dd0000ff022
:020dd1000ff021
:020dd2000ff020
:020dd3000ff01f
:020dd4000ff01e
:020dd5000ff01d
:020dd6000ff01c
:020dd7000ff01b
:020dd8000ff01a
:020dd9000ff019
:020dda000ff018
:020ddb000ff017
:020ddc000ff016
:020ddd000ff015
:020dde000ff014
:020ddf000ff013
:020de0000ff012
:020de1000ff011
:020de2000ff010
:020de3000ff00f
:020de4000ff00e
:020de5000ff00d
:020de6000ff00c
:020de7000ff00b
:020de8000ff00a
:020de9000ff009
:020dea000ff008
:020deb000ff007
:020dec000ff006
:020ded000ff005
:020dee000ff004
:020def000ff003
:020df0000ff002
:020df1000ff001
:020df2000ff000
:020df3000ff0ff
:020df4000ff0fe
:020df5000ff0fd
:020df6000ff0fc
:020df7000ff0fb
:020df8000ff0fa
:020df9000ff0f9
:020dfa000ff0f8
:020dfb000ff0f7
:020dfc000ff0f6
:020dfd000ff0f5
:020dfe000ff0f4
:020dff000ff0f3
:020e00000ff0f1
:020e01000ff0f0
:020e02000ff0ef
:020e03000ff0ee
:020e04000ff0ed
:020e05000ff0ec
:020e06000ff0eb
:020e07000ff0ea
:020e08000ff0e9
:020e09000ff0e8
:020e0a000ff0e7
:020e0b000ff0e6
:020e0c000ff0e5
:020e0d000ff0e4
:020e0e000ff0e3
:020e0f000ff0e2
:020e10000ff0e1
:020e11000ff0e0
:020e12000ff0df
:020e13000ff0de
:020e14000ff0dd
:020e15000ff0dc
:020e16000ff0db
:020e17000ff0da
:020e18000ff0d9
:020e19000ff0d8
:020e1a000ff0d7
:020e1b000ff0d6
:020e1c000ff0d5
:020e1d000ff0d4
:020e1e000ff0d3
:020e1f000ff0d2
:020e20000ff0d1
:020e21000ff0d0
:020e22000ff0cf
:020e23000ff0ce
:020e24000ff0cd
:020e25000ff0cc
:020e26000ff0cb
:020e27000ff0ca
:020e28000ff0c9
:020e29000ff0c8
:020e2a000ff0c7
:020e2b000ff0c6
:020e2c000ff0c5
:020e2d000ff0c4
:020e2e000ff0c3
:020e2f000ff0c2
:020e30000fefc2
:020e31000fefc1
:020e32000fefc0
:020e33000fefbf
:020e34000fefbe
:020e35000fefbd
:020e36000fefbc
:020e37000fefbb
:020e38000fefba
:020e39000fefb9
:020e3a000fefb8
:020e3b000fefb7
:020e3c000fefb6
:020e3d000fefb5
:020e3e000fefb4
:020e3f000fefb3
:020e40000fefb2
:020e41000fefb1
:020e42000fefb0
:020e43000fefaf
:020e44000fefae
:020e45000fefad
:020e46000fefac
:020e47000fefab
:020e48000fefaa
:020e49000fefa9
:020e4a000fefa8
:020e4b000fefa7
:020e4c000fefa6
:020e4d000fefa5
:020e4e000fefa4
:020e4f000fefa3
:020e50000fefa2
:020e51000fefa1
:020e52000fefa0
:020e53000fef9f
:020e54000fef9e
:020e55000fef9d
:020e56000fef9c
:020e57000fef9b
:020e58000fef9a
:020e59000fef99
:020e5a000fef98
:020e5b000fef97
:020e5c000fef96
:020e5d000fef95
:020e5e000fef94
:020e5f000fef93
:020e60000fef92
:020e61000fef91
:020e62000fef90
:020e63000fef8f
:020e64000fef8e
:020e65000fef8d
:020e66000fef8c
:020e67000fef8b
:020e68000fef8a
:020e69000fef89
:020e6a000fef88
:020e6b000fef87
:020e6c000fef86
:020e6d000fef85
:020e6e000fef84
:020e6f000fef83
:020e70000fef82
:020e71000fef81
:020e72000fef80
:020e73000fef7f
:020e74000fef7e
:020e75000fef7d
:020e76000fef7c
:020e77000fef7b
:020e78000fef7a
:020e79000fef79
:020e7a000fef78
:020e7b000fef77
:020e7c000fef76
:020e7d000fef75
:020e7e000fef74
:020e7f000fef73
:020e80000fef72
:020e81000fef71
:020e82000fef70
:020e83000fef6f
:020e84000fef6e
:020e85000fef6d
:020e86000fef6c
:020e87000fef6b
:020e88000fef6a
:020e89000fef69
:020e8a000fef68
:020e8b000fef67
:020e8c000fef66
:020e8d000fef65
:020e8e000fef64
:020e8f000fef63
:020e90000fef62
:020e91000fef61
:020e92000fef60
:020e93000fef5f
:020e94000fef5e
:020e95000fef5d
:020e96000fef5c
:020e97000fef5b
:020e98000fef5a
:020e99000fef59
:020e9a000fef58
:020e9b000fef57
:020e9c000fef56
:020e9d000fef55
:020e9e000fef54
:020e9f000fef53
:020ea0000fef52
:020ea1000fef51
:020ea2000fef50
:020ea3000fee50
:020ea4000fee4f
:020ea5000fee4e
:020ea6000fee4d
:020ea7000fee4c
:020ea8000fee4b
:020ea9000fee4a
:020eaa000fee49
:020eab000fee48
:020eac000fee47
:020ead000fee46
:020eae000fee45
:020eaf000fee44
:020eb0000fee43
:020eb1000fee42
:020eb2000fee41
:020eb3000fee40
:020eb4000fee3f
:020eb5000fee3e
:020eb6000fee3d
:020eb7000fee3c
:020eb8000fee3b
:020eb9000fee3a
:020eba000fee39
:020ebb000fee38
:020ebc000fee37
:020ebd000fee36
:020ebe000fee35
:020ebf000fee34
:020ec0000fee33
:020ec1000fee32
:020ec2000fee31
:020ec3000fee30
:020ec4000fee2f
:020ec5000fee2e
:020ec6000fee2d
:020ec7000fee2c
:020ec8000fee2b
:020ec9000fee2a
:020eca000fee29
:020ecb000fee28
:020ecc000fee27
:020ecd000fee26
:020ece000fee25
:020ecf000fee24
:020ed0000fee23
:020ed1000fee22
:020ed2000fee21
:020ed3000fee20
:020ed4000fee1f
:020ed5000fee1e
:020ed6000fee1d
:020ed7000fee1c
:020ed8000fee1b
:020ed9000fee1a
:020eda000fee19
:020edb000fee18
:020edc000fee17
:020edd000fee16
:020ede000fee15
:020edf000fee14
:020ee0000fee13
:020ee1000fee12
:020ee2000fee11
:020ee3000fee10
:020ee4000fee0f
:020ee5000fee0e
:020ee6000fee0d
:020ee7000fee0c
:020ee8000fee0b
:020ee9000fee0a
:020eea000fee09
:020eeb000fee08
:020eec000fee07
:020eed000fee06
:020eee000fee05
:020eef000fee04
:020ef0000fee03
:020ef1000fee02
:020ef2000fee01
:020ef3000fee00
:020ef4000feeff
:020ef5000feefe
:020ef6000feefd
:020ef7000feefc
:020ef8000feefb
:020ef9000feefa
:020efa000feef9
:020efb000feef8
:020efc000feef7
:020efd000feef6
:020efe000feef5
:020eff000feef4
:020f00000feef2
:020f01000feef1
:020f02000feef0
:020f03000feeef
:020f04000feeee
:020f05000feeed
:020f06000feeec
:020f07000feeeb
:020f08000feeea
:020f09000feee9
:020f0a000feee8
:020f0b000feee7
:020f0c000feee6
:020f0d000feee5
:020f0e000feee4
:020f0f000feee3
:020f10000feee2
:020f11000feee1
:020f12000feee0
:020f13000fede0
:020f14000feddf
:020f15000fedde
:020f16000feddd
:020f17000feddc
:020f18000feddb
:020f19000fedda
:020f1a000fedd9
:020f1b000fedd8
:020f1c000fedd7
:020f1d000fedd6
:020f1e000fedd5
:020f1f000fedd4
:020f20000fedd3
:020f21000fedd2
:020f22000fedd1
:020f23000fedd0
:020f24000fedcf
:020f25000fedce
:020f26000fedcd
:020f27000fedcc
:020f28000fedcb
:020f29000fedca
:020f2a000fedc9
:020f2b000fedc8
:020f2c000fedc7
:020f2d000fedc6
:020f2e000fedc5
:020f2f000fedc4
:020f30000fedc3
:020f31000fedc2
:020f32000fedc1
:020f33000fedc0
:020f34000fedbf
:020f35000fedbe
:020f36000fedbd
:020f37000fedbc
:020f38000fedbb
:020f39000fedba
:020f3a000fedb9
:020f3b000fedb8
:020f3c000fedb7
:020f3d000fedb6
:020f3e000fedb5
:020f3f000fedb4
:020f40000fedb3
:020f41000fedb2
:020f42000fedb1
:020f43000fedb0
:020f44000fedaf
:020f45000fedae
:020f46000fedad
:020f47000fedac
:020f48000fedab
:020f49000fedaa
:020f4a000feda9
:020f4b000feda8
:020f4c000feda7
:020f4d000feda6
:020f4e000feda5
:020f4f000feda4
:020f50000feda3
:020f51000feda2
:020f52000feda1
:020f53000feda0
:020f54000fed9f
:020f55000fed9e
:020f56000fed9d
:020f57000fed9c
:020f58000fed9b
:020f59000fed9a
:020f5a000fed99
:020f5b000fed98
:020f5c000fed97
:020f5d000fed96
:020f5e000fed95
:020f5f000fed94
:020f60000fed93
:020f61000fed92
:020f62000fed91
:020f63000fed90
:020f64000fed8f
:020f65000fed8e
:020f66000fed8d
:020f67000fed8c
:020f68000fed8b
:020f69000fed8a
:020f6a000fed89
:020f6b000fed88
:020f6c000fed87
:020f6d000fed86
:020f6e000fed85
:020f6f000fed84
:020f70000fed83
:020f71000fed82
:020f72000fed81
:020f73000fed80
:020f74000fed7f
:020f75000fed7e
:020f76000fed7d
:020f77000fed7c
:020f78000fed7b
:020f79000fed7a
:020f7a000fed79
:020f7b000fed78
:020f7c000fed77
:020f7d000fed76
:020f7e000fed75
:020f7f000fed74
:020f80000fec74
:020f81000fec73
:020f82000fec72
:020f83000fec71
:020f84000fec70
:020f85000fec6f
:020f86000fec6e
:020f87000fec6d
:020f88000fec6c
:020f89000fec6b
:020f8a000fec6a
:020f8b000fec69
:020f8c000fec68
:020f8d000fec67
:020f8e000fec66
:020f8f000fec65
:020f90000fec64
:020f91000fec63
:020f92000fec62
:020f93000fec61
:020f94000fec60
:020f95000fec5f
:020f96000fec5e
:020f97000fec5d
:020f98000fec5c
:020f99000fec5b
:020f9a000fec5a
:020f9b000fec59
:020f9c000fec58
:020f9d000fec57
:020f9e000fec56
:020f9f000fec55
